:020000040800F2
:100000000050002061560008AD480008AF480008C5
:10001000B1480008B3480008B548000800000000D7
:10002000000000000000000000000000B7480008C9
:10003000B948000800000000BB480008BD4800089F
:10004000A9560008A9560008A9560008A956000894
:10005000A9560008A9560008A9560008A956000884
:10006000A9560008A9560008A9560008A956000874
:10007000A9560008A956000819490008294900088E
:10008000A9560008A9560008A9560008A956000854
:10009000C9480008A9560008A9560008A956000832
:1000A000A9560008D9480008A9560008A956000812
:1000B000A9560008F1480008A9560008A9560008EA
:1000C000A9560008A9560008A9560008A956000814
:1000D000A956000839490008A9560008A956000881
:1000E000A9560008A9560008A956000800000000FB
:1000F0000000000000000000000000000000000000
:0C01000000000000000000005FF808F1A3
:1001100010B5054C237833B9044B13B10448AFF341
:1001200000800123237010BD28070020000000007C
:10013000A0AD000808B5034B1BB103490348AFF35A
:10014000008008BD000000002C070020A0AD0008C2
:1001500010F8012B11F8013B012A28BF9A42F7D071
:10016000D01A7047034613F8012B002AFBD1181A46
:100170000138704781F0004102E000BF83F0004386
:1001800030B54FEA41044FEA430594EA050F08BF32
:1001900090EA020F1FBF54EA000C55EA020C7FEAF6
:1001A000645C7FEA655C00F0E2804FEA5454D4EB73
:1001B0005555B8BF6D420CDD2C4480EA020281EA3D
:1001C000030382EA000083EA010180EA020281EA75
:1001D0000303362D88BF30BD11F0004F4FEA0131C7
:1001E0004FF4801C4CEA113102D0404261EB4101D6
:1001F00013F0004F4FEA03334CEA133302D052425C
:1002000063EB430394EA050F00F0A780A4F1010417
:10021000D5F1200E0DDB02FA0EFC22FA05F2801851
:1002200041F1000103FA0EF2801843FA05F3594137
:100230000EE0A5F120050EF1200E012A03FA0EFCB6
:1002400028BF4CF0020C43FA05F3C01851EBE371E0
:1002500001F0004507D54FF0000EDCF1000C7EEBFD
:1002600000006EEB0101B1F5801F1BD3B1F5001F3B
:100270000CD349085FEA30004FEA3C0C04F101045A
:100280004FEA445212F5800F80F09A80BCF1004F83
:1002900008BF5FEA500C50F1000041EB045141EA05
:1002A000050130BD5FEA4C0C404141EB010111F406
:1002B000801FA4F10104E9D191F0000F04BF0146B1
:1002C0000020B1FA81F308BF2033A3F10B03B3F18F
:1002D00020020CDA0C3208DD02F1140CC2F10C021F
:1002E00001FA0CF021FA02F10CE002F11402D8BF7D
:1002F000C2F1200C01FA02F120FA0CFCDCBF41EA49
:100300000C019040E41AA2BF01EB0451294330BD17
:100310006FEA04041F3C1CDA0C340EDC04F11404F4
:10032000C4F1200220FA04F001FA02F340EA0300CB
:1003300021FA04F345EA030130BDC4F10C04C4F111
:10034000200220FA02F001FA04F340EA03002946F1
:1003500030BD21FA04F0294630BD94F0000F83F43B
:10036000801306BF81F480110134013D4EE77FEA1E
:10037000645C18BF7FEA655C29D094EA050F08BF6A
:1003800090EA020F05D054EA000C04BF194610464B
:1003900030BD91EA030F1EBF0021002030BD5FEA8F
:1003A000545C05D14000494128BF41F0004130BDB7
:1003B00014F580043CBF01F5801130BD01F000450B
:1003C00045F0FE4141F470014FF0000030BD7FEA7E
:1003D000645C1ABF194610467FEA655C1CBF0B4679
:1003E000024650EA013406BF52EA033591EA030F90
:1003F00041F4002130BD00BF90F0000F04BF002188
:10040000704730B54FF4806404F132044FF00005BA
:100410004FF0000150E700BF90F0000F04BF002133
:10042000704730B54FF4806404F1320410F0004599
:1004300048BF40424FF000013EE700BF42004FEA94
:10044000E2014FEA31014FEA02701FBF12F07F4311
:1004500093F07F4F81F06051704792F0000F14BF0E
:1004600093F07F4F704730B54FF4607401F0004552
:1004700021F0004120E700BF50EA010208BF7047A9
:1004800030B54FF000050AE050EA010208BF70479E
:1004900030B511F0004502D5404261EB41014FF407
:1004A000806404F132045FEA915C3FF4DCAE4FF00B
:1004B00003025FEADC0C18BF03325FEADC0C18BFF2
:1004C000033202EBDC02C2F1200300FA03FC20FA43
:1004D00002F001FA03FE40EA0E0021FA02F1144490
:1004E000C1E600BF70B54FF0FF0C4CF4E06C1CEAA5
:1004F00011541DBF1CEA135594EA0C0F95EA0C0F1A
:1005000000F0DEF82C4481EA030621EA4C5123EA8C
:100510004C5350EA013518BF52EA033541F48011BB
:1005200043F4801338D0A0FB02CE4FF00005E1FB6E
:1005300002E506F00042E0FB03E54FF00006E1FBB8
:1005400003569CF0000F18BF4EF0010EA4F1FF04FB
:10055000B6F5007F64F5407404D25FEA4E0E6D413B
:1005600046EB060642EAC62141EA55514FEAC5204C
:1005700040EA5E504FEACE2EB4F1FD0C88BFBCF5C8
:10058000E06F1ED8BEF1004F08BF5FEA500E50F179
:10059000000041EB045170BD06F0004646EA01013F
:1005A00040EA020081EA0301B4EB5C04C2BFD4EB71
:1005B0000C0541EA045170BD41F480114FF0000E6A
:1005C000013C00F3AB8014F1360FDEBF002001F0D8
:1005D000004170BDC4F10004203C35DA0C341BDC52
:1005E00004F11404C4F1200500FA05F320FA04F024
:1005F00001FA05F240EA020001F0004221F0004158
:1006000010EBD37021FA04F642EB06015EEA430ECA
:1006100008BF20EAD37070BDC4F10C04C4F12005FA
:1006200000FA04F320FA05F001FA04F240EA0200AD
:1006300001F0004110EBD37041F100015EEA430E7E
:1006400008BF20EAD37070BDC4F1200500FA05F29E
:100650004EEA020E20FA04F301FA05F243EA02031D
:1006600021FA04F001F0004121FA04F220EA02002C
:1006700000EBD3705EEA430E08BF20EAD37070BD72
:1006800094F0000F0FD101F00046400041EB010152
:1006900011F4801F08BF013CF7D041EA060195F034
:1006A000000F18BF704703F00046520043EB0303EE
:1006B00013F4801F08BF013DF7D043EA06037047DB
:1006C00094EA0C0F0CEA135518BF95EA0C0F0CD0E6
:1006D00050EA410618BF52EA4306D1D181EA03012C
:1006E00001F000414FF0000070BD50EA410606BF26
:1006F0001046194652EA430619D094EA0C0F02D16B
:1007000050EA013613D195EA0C0F05D152EA0336AF
:100710001CBF104619460AD181EA030101F00041CD
:1007200041F0FE4141F470014FF0000070BD41F016
:10073000FE4141F4780170BD70B54FF0FF0C4CF4F0
:10074000E06C1CEA11541DBF1CEA135594EA0C0F0F
:1007500095EA0C0F00F0A7F8A4EB050481EA030E5C
:1007600052EA03354FEA013100F088804FEA033343
:100770004FF0805545EA131343EA12634FEA022211
:1007800045EA111545EA10654FEA00260EF00041D2
:100790009D4208BF964244F1FD0404F5407402D224
:1007A0005B084FEA3202B61A65EB03055B084FEAB5
:1007B00032024FF480104FF4002CB6EB020E75EBB2
:1007C000030E22BFB61A754640EA0C005B084FEADA
:1007D0003202B6EB020E75EB030E22BFB61A754657
:1007E00040EA5C005B084FEA3202B6EB020E75EBA2
:1007F000030E22BFB61A754640EA9C005B084FEA1A
:100800003202B6EB020E75EB030E22BFB61A754626
:1008100040EADC0055EA060E18D04FEA051545EA15
:1008200016754FEA06164FEAC30343EA52734FEABE
:10083000C2025FEA1C1CC0D111F4801F0BD141EA37
:1008400000014FF000004FF0004CB6E711F4801F9C
:1008500004BF01430020B4F1FD0C88BFBCF5E06F7C
:100860003FF6AFAEB5EB030C04BFB6EB020C5FEA8C
:10087000500C50F1000041EB045170BD0EF0004EE1
:100880004EEA113114EB5C04C2BFD4EB0C0541EA13
:10089000045170BD41F480114FF0000E013C90E610
:1008A00045EA060E8DE60CEA135594EA0C0F08BFD4
:1008B00095EA0C0F3FF43BAF94EA0C0F0AD150EAD3
:1008C00001347FF434AF95EA0C0F7FF425AF104666
:1008D00019462CE795EA0C0F06D152EA03353FF48E
:1008E000FDAE1046194622E750EA410618BF52EA0B
:1008F00043067FF4C5AE50EA41047FF40DAF52EADF
:1009000043057FF4EBAE12E74FF0FF3C06E000BF7B
:100910004FF0010C02E000BF4FF0010C4DF804CD88
:100920004FEA410C7FEA6C5C4FEA430C18BF7FEA48
:100930006C5C1BD001B050EA410C0CBF52EA430C76
:1009400091EA030F02BF90EA020F0020704710F1F6
:10095000000F91EA030F58BF994208BF90422CBF85
:10096000D8176FEAE37040F0010070474FEA410C7E
:100970007FEA6C5C02D150EA013C07D14FEA430C9C
:100980007FEA6C5CD6D152EA033CD3D05DF8040B0D
:10099000704700BF8446104662468C46194663463F
:1009A00000E000BF01B5FFF7B7FF002848BF10F116
:1009B000000F01BD4DF808EDFFF7F4FF0CBF01205B
:1009C00000205DF808FB00BF4DF808EDFFF7EAFFD7
:1009D00034BF012000205DF808FB00BF4DF808ED92
:1009E000FFF7E0FF94BF012000205DF808FB00BF87
:1009F0004DF808EDFFF7CEFF94BF012000205DF811
:100A000008FB00BF4DF808EDFFF7C4FF34BF01201D
:100A100000205DF808FB00BF4FEA410C7FEA6C5CE8
:100A200002D150EA013C0AD14FEA430C7FEA6C5CE8
:100A300002D152EA033C02D14FF0000070474FF060
:100A4000010070474FEA410212F5001215D211D58C
:100A50006FF47873B3EB625212D94FEAC12343F0BB
:100A6000004343EA505311F0004F23FA02F018BF3D
:100A7000404270474FF00000704750EA013005D106
:100A800011F0004008BF6FF0004070474FF00000C9
:100A9000704700BF4A0011D212F5001211D20DD5D5
:100AA0006FF47873B3EB62520ED44FEAC12343F074
:100AB000004343EA505323FA02F070474FF000001E
:100AC000704750EA013002D14FF0FF3070474FF0CD
:100AD000000070474FEA4102B2F1E04324BFB3F592
:100AE000001CDCF1FE5C0DD901F0004C4FEAC002A5
:100AF0004CEA5070B2F1004F40EB830008BF20F089
:100B00000100704711F0804F21D113F13872BCBF42
:100B100001F00040704741F480114FEA5252C2F197
:100B20001802C2F1200C10FA0CF320FA02F018BFE0
:100B300040F001004FEAC1234FEAD32303FA0CFC33
:100B400040EA0C0023FA02F34FEA4303CCE77FEAC2
:100B5000625307D150EA01331EBF4FF0FE4040F40C
:100B60004000704701F0004040F0FE4040F40000BB
:100B7000704700BF53B94AB9002908BF00281CBFFD
:100B80004FF0FF314FF0FF3001F000B9ADF1080C2C
:100B90006DE904CE00F006F8DDF804E0DDE902239B
:100BA00004B070472DE9F0478C460E460446089D78
:100BB000002B50D18A4217466CD9B2FA82FEBEF1A0
:100BC000000F0BD0CEF1200C01FA0EF620FA0CFC2F
:100BD00002FA0EF74CEA060C00FA0EF43A0CBCFBD3
:100BE000F2F9BBB202FB19CC09FB03FA4FEA144835
:100BF00048EA0C46B2450AD9F61909F1FF3180F0EE
:100C00002581B24540F22281A9F102093E44A6EBBA
:100C10000A06B6FBF2F002FB106600FB03F3A4B277
:100C200044EA0644A34209D9E41900F1FF3280F0F6
:100C30000B81A34240F2088102383C440021E41AAF
:100C400040EA0940002D62D0002324FA0EF42C6003
:100C50006B60BDE8F0878B4207D9002D55D000218D
:100C600085E841000846BDE8F087B3FA83F1002922
:100C700040F08F80B34202D3824200F2FC80841A9B
:100C800066EB03060120B446002D40D085E8101025
:100C9000BDE8F08712B90127B7FBF2F7B7FA87FE74
:100CA000BEF1000F35D10121F61B4FEA174C1FFA98
:100CB00087F8B6FBFCF20CFB126608FB02F0230C73
:100CC00043EA0646B04207D9F61902F1FF3302D2D1
:100CD000B04200F2D2801A46361AB6FBFCF00CFB8A
:100CE000106608FB00F8A3B243EA0644A04507D902
:100CF000E41900F1FF3302D2A04500F2B980184692
:100D0000A4EB080440EA02409CE729462846BDE8D7
:100D1000F08707FA0EF7CEF1200326FA03F24FEA26
:100D2000174CB2FBFCF11FFA87F80CFB112206FAF4
:100D30000EF620FA03F301FB08F933431E0C46EAD2
:100D40000246B14500FA0EF409D9F61901F1FF3255
:100D500080F08C80B14540F2898002393E44A6EB98
:100D60000906B6FBFCF00CFB106200FB08F99EB212
:100D700046EA0246B14507D9F61900F1FF3371D2B0
:100D8000B1456FD902383E44A6EB090640EA01415D
:100D90008FE7C1F1200722FA07F88B4048EA0303E6
:100DA00026FA07F44FEA134EB4FBFEF91FFA83FC50
:100DB0000EFB19448E4020FA07F809FB0CFA48EAAA
:100DC00006084FEA184646EA0444A24502FA01F230
:100DD00000FA01F608D9E41809F1FF3044D2A2451F
:100DE00042D9A9F102091C44A4EB0A04B4FBFEF0A9
:100DF0000EFB104400FB0CFC1FFA88F848EA044480
:100E0000A44507D9E41800F1FF3E29D2A44527D90B
:100E100002381C4440EA0940A0FB0289A4EB0C0CF8
:100E2000CC45C246CE4615D312D055B1B6EB0A0317
:100E30006CEB0E0606FA07F7CB401F43CE402F603F
:100E40006E600021BDE8F0871046F7E68946DEE6D1
:100E50004645EAD2B8EB020A69EB030E0138E4E733
:100E60007046D7E718468FE78146BDE7114676E71B
:100E700002383C4444E7084606E7023A3E442BE782
:100E800003685A004CBF43F0004323F0004318446A
:100E9000704700BF61B32DE9F84F01F1FF3A90466A
:100EA0000646D146002707EB090404EBD47464100E
:100EB000E50071190846FFF7E3FFA245834605F1F7
:100EC0000800304409D0FFF7DBFFC34500F1FF30D5
:100ED00005D8404509D2671CE5E7C34505D9A742B7
:100EE00002D004F1FF39DEE700210846BDE8F88FA3
:100EF00008467047012807D0022807D0044B002875
:100F00000CBF1846002070470248704702487047DF
:100F100005160008091600080D16000830B5254B07
:100F200083B004468D1E73B301A92846AFF3008039
:100F300018B301992A46FFF7ADFF0146E8B1FFF764
:100F40009FFF4B68A064012B11D0002B22DB081DF2
:100F5000FFF796FF0023E06423650368002B1EDB88
:100F6000FFF78EFF00232061184603B030BD052334
:100F700000221846226103B030BD09230022184622
:100F8000226103B030BD0C4B0C491846C91AC91078
:100F90000191CFE70123081DE0642365DDE7C3F37A
:100FA0000360FFF7A7FF0028206114BF0023092377
:100FB000DAE700BF000000004CB400082CB60008BF
:100FC000036810B5DA07044606D49B0700F1480011
:100FD00009D500F057FC2368590709D51A070ED523
:100FE000DB0613D510BD00F045FC23685907F5D486
:100FF00004F1D00000F04EFC23681A07F0D404F589
:10100000A87000F04FFC2368DB06EBD404F5E87011
:10101000BDE8104000F08ABC036803B103441846E1
:10102000704700BF09207047704700BF70B5044685
:101030000D4608E02A6C2369626121462A46012098
:101040009847082808D1296C2046FFF767FF064615
:101050000028EFD009F038FE0728FBD13046296C74
:10106000FFF7E2FF281D00F0F9FB00BF2DE9F04774
:1010700005460027ADF5727D03AC0E1D92460FCEDE
:101080000FC40FCE0FC40FCE0FC496E80F00D5F8D3
:101090000C80D5F8189084E80F0002AC2846216C2B
:1010A0002760FFF73BFFBAF1000F074614BF0A267F
:1010B00009267FB1A36B46F010018DE810022A4685
:1010C000636401202B46C04778BB38460DF5727D1E
:1010D000BDE8F087236C4FF4F0726B6121467AA86B
:1010E00004F008FB2B697AAA294630469847889B6A
:1010F00082468DE81002314663642A462B46012061
:10110000C04790B94FF4F0727AA9204604F0F2FA81
:10111000BAF1080F06D1216C2846FFF7FFFE092619
:101120000746C6E7BAF1070F05D0092738460DF57F
:10113000727DBDE8F0873846216CFFF775FF03A884
:1011400000F08CFB406C7047F0B54FF0FF3ECB6B6E
:10115000F9B00B640E1D01AD0F4604460FCE0FC54E
:101160000FCE0FC50FCE0FC596E80F0085E80F0014
:10117000CDF800E006E023696A4621469847082832
:10118000054608D110992046FFF7C8FE0028F2D086
:10119000092079B0F0BD6846FFF712FF062DF7D1A0
:1011A00039462046FFF742FF30B4DD6BC1608261F3
:1011B00019461D64002230BC58E700BF70B5436972
:1011C000C6680B6426B10122FFF750FF09F07CFDD1
:1011D00003690A4604460D4601460220984707283F
:1011E00007D0082803D129462046FFF71FFF09F042
:1011F0006BFD3046296CFFF717FF281D00F02EFB12
:10120000C2682AB110B4CC6B00220C6410BC2DE76C
:101210009AE700BF704700BF836813B10146012001
:101220001847704700B5042907D8DFE801F0030923
:10123000060909000BB90F2A05D902205DF804FB45
:1012400001205DF804FB00EB820252681846019B06
:101250001A605DF804FB00BF002310B584B003AC36
:101260000A4600941946FFF7DDFF039804B010BD4D
:1012700000B5042907D8DFE801F0030906090900D1
:101280000BB90F2A05D902205DF804FB01205DF897
:1012900004FB019900EB82020968184651605DF871
:1012A00004FB00BF002310B584B004AC44F8042D47
:1012B00000940A461946FFF7DBFF04B010BD00BFDB
:1012C000F0B54FF0FF3ED36BADF50F7D1364151DE8
:1012D00017AC07460E460FCD0FC40FCD0FC40FCD70
:1012E0000FC495E80F0084E80F00CDF858E012E035
:1012F0000C2116A86A46FFF7D5FF314616A8B84755
:1013000078B9049B16AA6946082098470528044620
:1013100008D0092805D026996846FFF7FFFD002868
:10132000E6D0092416A8FFF74BFE20460DF50F7DE9
:10133000F0BD00BF2DE9F04FCC6C914622688BB018
:1013400004340D460792089400F0030B1E46002B50
:1013500060D10323120207928DF825608DF82430A6
:101360002B6DBBF1020F08BFAC6B13F0010340D132
:10137000019300F008030393D4F80080B8F1000F44
:1013800039D0022E43D0B4F8008067880434AB6CA7
:1013900027F0010A0F2148469A44FFF75DFF824576
:1013A00033D828F001039A4450452CBF0020012077
:1013B0007F0007F0020708F0010847EA0807012F3D
:1013C0003ED035D3022F1CD1236823F00042029275
:1013D000BBF1000F76D128B1039900297ED0002AF5
:1013E00000F0A680002B77DB029B013304EB830423
:1013F000C2E700230193022E3EDDFFF713FE002813
:1014000040D009200BB0BDE8F08F0020D0E767681E
:101410000834BCE7022BA3DC0221130C8DF8253025
:101420001204DBB204EB830407928DF8241097E7D3
:10143000BBF1000F02D0002840F0BD8004349BE7D0
:10144000BBF1000F25D1A8B194E80C00991C4FEA1C
:10145000D272D6D005F158010133069100F0A38075
:10146000201DFFF7D9FD06AB01462846AFF30080EB
:10147000002877D108347FE707A9484600F0F0FA42
:101480000028BED1019B002B5CD108200BB0BDE829
:10149000F08F0D2148462F6AFFF7DEFE8742E9D123
:1014A000AB6A9C42E6D12046FFF7EAFC0F210246D8
:1014B0004846FFF7F7FE48462A460021FFF7F2FEAE
:1014C00007209FE70D2148462F6AFFF7C5FE874298
:1014D00058D02368002B87DA043485E7029B3BB39E
:1014E00005F15803271DCDF810B0DDF80C80A34698
:1014F000DDF808A01C46059602E0B245B04616D0BD
:1015000038460694FFF788FD06AB014600222846C0
:10151000AFF3008008F1010604370028EDD0029BEC
:101520005C464345DDF810B0059ED2D100E05C4634
:1015300048460D21FFF790FE069B2862AC626B6265
:1015400006205FE70F214846FFF786FE0E21024680
:101550004846FFF7A7FE4846294A0F21FFF7A2FE9B
:1015600007204FE707460D214846FFF775FE022F7B
:1015700028621DD12B46069A43F82C2F6B62AC6271
:1015800006203FE7AB6A9C42A3D1042200270299C0
:10159000A318A962EF622A636B632368BB421DDB59
:1015A0000123019320E748460D21FFF755FE2862ED
:1015B000069B6B62E3E72046FFF762FC04340646B5
:1015C000AC632846AFF3008000283FF41AAF4846CA
:1015D00032460F21FFF766FE072013E70846013069
:1015E00004EB8000FFF74CFC0F2102464846FFF752
:1015F00059FE48462A463946FFF754FE072001E7C0
:1016000000000000002395E6012393E6022391E603
:10161000F0B50446C5B004290DD8DFE801F0550344
:101620000C310F00012B4FEA124695B264D17219AA
:10163000102A40F29D80022045B0F0BD002BFAD167
:10164000102AF8D82368D80600F1C88022AE3046A8
:101650000192012500F074F90023A06B019A05FAAC
:1016600003F1114203D00168043046F8231001331E
:10167000042BF4D1A063304600F058F90020DBE7DA
:10168000032BD8D1150C97B2EB19102BD3D82368A4
:101690001E0700F1B78022AE304600F025F9ED00BC
:1016A000A06B5FB1043D0346711900EBC70053F80E
:1016B000042B834241F8042FF9D11846A063304629
:1016C00000F0F0F80020B7E7002BB4D10127A56B9C
:1016D00096B2201D07FA03F1314203F1010302D053
:1016E000296804350160102B00F10400F2D112F4D6
:1016F00000503BD1A5639FE7052B9CD17719202F84
:1017000099D80F2E66D92F46002D3AD12A460027A8
:10171000002AA06B72DD00EBC202014644A800EB78
:10172000C6008C3851F8045B914240F8045FF9D14F
:10173000084697B1102E324638BF102244A901EB5B
:10174000C202A2F5C4727900043A00EB810150F89C
:10175000045B884242F8045FF9D1012B48D00F2E78
:10176000A16333D917B102A800F094F8002063E711
:101770000F2E3FF660AF00272268D10717D4002F45
:1017800060D02268510745D4012B4DD00F2E06D8CA
:1017900022A8019300F07AF8019B002FB6D002A88E
:1017A000019300F07BF8019BC6F11002B0E722F034
:1017B0000101052B2160019320463BD022F003025A
:1017C00040F8482B00F05AF8019BD8E722A800F017
:1017D00059F8C7E7102FCED9103FCDE723F01003FB
:1017E000236004F5E870019200F0AAF8019A2DE751
:1017F0000431A16322A800F03DF8B7E7002F99D18A
:101800000146AAE723F00803236004F5A87000F05E
:101810006BF840E7204622F0040240F8D02B0193F9
:1018200000F03CF8019BAFE722A8019300F026F8F6
:10183000019BB9E741F0020140F8481B00F026F88F
:10184000019B9CE7012B03D00F2E3FF65FAF9FE774
:1018500022A8019300F012F8019B57E700F1340130
:1018600091E838009C46A6464CF8045D90E8FF0FCE
:10187000E54600BD90EC210B704700BF80EC210BCA
:10188000704700BF90EC200B704700BF80EC200B2E
:10189000704700BFD0EC200B704700BFC0EC200B9E
:1018A000704700BFF0EC0201F0EC0211F0EC0221F5
:1018B000F0EC0231F0EC0241F0EC0251F0EC02618C
:1018C000F0EC0271F0EC0281F0EC0291F0EC02A17C
:1018D000F0EC02B1F0EC02C1F0EC02D1F0EC02E16C
:1018E000F0EC02F1704700BFE0EC0201E0EC021105
:1018F000E0EC0221E0EC0231E0EC0241E0EC0251CC
:10190000E0EC0261E0EC0271E0EC0281E0EC0291BB
:10191000E0EC02A1E0EC02B1E0EC02C1E0EC02D1AB
:10192000E0EC02E1E0EC02F1704700BFB0FC0181A5
:10193000B0FC0191B0FC01A1B0FC01B1704700BF47
:10194000A0FC0181A0FC0191A0FC01A1A0FC01B1BF
:10195000704700BFEC4600B52DE900502DE9FF1F90
:101960004FF000032DE90C0001A9FFF7EDFBDDF8B6
:1019700040E012B0704700BFEC4600B52DE90050C2
:101980002DE9FF1F4FF000032DE90C0001A9FFF71F
:1019900015FCDDF840E012B0704700BFEC4600B522
:1019A0002DE900502DE9FF1F4FF000032DE90C0039
:1019B00001A9FFF725FCDDF840E012B0704700BF39
:1019C000EC4600B52DE900502DE9FF1F4FF0000354
:1019D0002DE90C0001ABFFF7E7FBDDF840E012B0AA
:1019E000704700BFEC4600B52DE900502DE9FF1F00
:1019F0004FF000032DE90C0001AAFFF761FCDDF8B0
:101A000040E012B0704700BF027A1AB9437A43B976
:101A1000B02070470368013A02721A020260180E81
:101A2000704703214268013B10B443721368141DD0
:101A300001721A024460026010BC180E704700BFA9
:101A4000002300B585B003AA009219460C22FFF7C7
:101A5000E9FB039805B05DF804FB00BFF0E700BFA9
:101A60002DE9F04306460F464FF0000885B0384692
:101A7000FFF7CAFFB028044623D0050627D4002369
:101A80000DF10C09194685000D22CDF80090304665
:101A9000FFF7C8FBEDB2039B600605F104054CBFE0
:101AA0005D1BED1800230D221946CDF8009030463D
:101AB0000395FFF7DDFB3846FFF7A6FFB028044685
:101AC000DBD1B8F1000F00F0948000201CE000F0A2
:101AD000F003802B5CD0902B19D0A02B2CD0B02BF6
:101AE0003ED0C02B6BD000F0F803D02B0BD100F010
:101AF0000702013242F40022052301213046FFF79C
:101B000087FD0028B3D0092005B0BDE8F08300F0C0
:101B10000D030D2BF7D0002303AD00F00F02194683
:101B200000953046FFF77EFB0023009519460D22F5
:101B30003046FFF79DFB9AE7C3434FF47F6203F003
:101B400007031A410023010702F47F6248BF42F4F1
:101B5000804219463046FFF75BFD0028D3D186E767
:101B6000B12857D0B22868D0B32800F0958000F093
:101B7000FC03B42BC7D0012300F007021A4442F43F
:101B8000002219463046FFF743FD0028BBD16EE71F
:101B90003846FFF739FF24020443B4F5004FB2D0B2
:101BA00000232401A2B219463046FFF731FD002878
:101BB000A9D114F4004F18BF4FF0010857E7C62809
:101BC0007DD0C72800F0868000F0F803C02B00F01D
:101BD0009480C82800F09F80C92894D13846FFF728
:101BE00013FF020300F00F0002F4702201300243E1
:101BF00082E703AC43460E22414600943046FFF78D
:101C000011FB0094304643460F224146FFF730FB5C
:101C1000404679E73846FFF7F7FE00283FF473AFF8
:101C200010F0F0037FF46FAF024619463046FFF71D
:101C3000EFFC00287FF467AF19E700230DF10C09D2
:101C40000D221946CDF800903046FFF7EBFA3846E2
:101C5000FFF7DAFE02064FF002040CD5039B00F0FA
:101C60007F00A040034438460393FFF7CDFE0306F0
:101C700004F10704F2D40023039900F07F02A2408C
:101C800001F501718C18CDF8009019460D223046EF
:101C90000394FFF7EDFAEAE63846FFF7B5FE0123B5
:101CA000010300F00F0001F47021C2180A4330460E
:101CB0001946FFF7ADFC00287FF425AFD7E638467C
:101CC000FFF7A2FE010300F00F00032301F47021CF
:101CD000421CEBE73846FFF797FE00283FF413AFAE
:101CE00010F0F0037FF40FAF024604213046FFF7F7
:101CF0008FFC00287FF407AFB9E6032300F00F0242
:101D0000013242F4202219463046FFF781FC0028B8
:101D10007FF4F9AEABE63846FFF776FE00F0F0024E
:101D200000F00F031032013343EA0232E4E600BF51
:101D300030B503240D46C36C85B05A688DF80C404D
:101D4000DC791202083301A9284601928DF80D4072
:101D50000293FFF785FE05B030BD00BF08B5FFF761
:101D60007DFE806C08BD00BF08B5FFF777FEC06C34
:101D7000C37900EB8300083008BD00BF08B508F048
:101D8000A3FF00BF08B5FFF7F9FF00BF704700BF12
:101D900010B504460E4B18784FF47A73B3FBF0F38A
:101DA0000C4A1068B0FBF3F000F0D6FB68B90F2CBA
:101DB00001D9012010BD002221464FF0FF3000F074
:101DC0008DFB054B1C60002010BD012010BD00BF25
:101DD00000000020B00000200400002008B5074AE1
:101DE000136843F010031360032000F065FB00202C
:101DF000FFF7CEFF02F046FC002008BD00200240A5
:101E0000034A1168034B1B780B441360704700BFF3
:101E10000C12002000000020014B1868704700BF22
:101E20000C12002038B50446FFF7F6FF0546B4F162
:101E3000FF3F02D0044B1B781C44FFF7EDFF401B13
:101E40008442FAD838BD00BF00000020002800F00E
:101E5000A18038B5044690F82030D3B122681368C9
:101E600023F002031360FFF7D7FF054623685A6883
:101E700012F0020F10D0FFF7CFFF401B0A28F5D950
:101E8000636A43F400336362052384F82030012041
:101E900038BD02F047FCE1E71A6842F001021A601F
:101EA000FFF7BAFF054623685A6812F0010F0DD1FB
:101EB000FFF7B2FF401B0A28F5D9636A43F40033E9
:101EC0006362052384F82030012038BD227E012A78
:101ED0003DD01A6822F080021A60637E012B3BD04D
:101EE0002268136823F040031360A37E012B39D0CE
:101EF0002268136823F020031360E37E012B37D0A0
:101F00002268136843F010031360237F012B35D040
:101F10002268136823F008031360637F012B33D01A
:101F20002268136823F0040313602168A368E26841
:101F3000134322691343626913436268013A1343EE
:101F4000CB6100206062012384F8203038BD1A681C
:101F500042F080021A60C0E72268136843F0400331
:101F60001360C2E72268136843F020031360C4E7DC
:101F70002268136823F010031360C6E72268136811
:101F800043F008031360C8E72268136843F00403B2
:101F90001360CAE701207047026890F82030013BC7
:101FA000DBB2012B05D9436A43F48023436201204D
:101FB000704770B4D2F8003243F00103C2F8003227
:101FC0004B6903F01F03012000FA03F3D2F81C420F
:101FD000D8430440C2F81C42CC69ACB9D2F80C42D8
:101FE0000440C2F80C424C69CE688D8845EA06452B
:101FF000483442F834504C698E680D8845EA0645ED
:10200000483402EBC4046560CC69012C19D08C699A
:1020100074BBD2F804420440C2F804420C696CBBA1
:10202000D2F814422040C2F81402096A01292BD0C8
:10203000D2F8003223F00103C2F80032002070BC55
:102040007047D2F80C421C43C2F80C424C690E682F
:102050008D8845EA0645483442F834504C698E680C
:102060008D8945EA0645483402EBC4046560CEE735
:10207000D2F804421C43C2F80442CFE7D2F814025B
:102080001843C2F81402D0E7D2F81C120B43C2F86E
:102090001C32CDE738B590F82030DBB2012B05D0EB
:1020A000436A43F400234362012038BD04460223FF
:1020B00080F820300268136823F001031360FFF7F3
:1020C000ABFE054623685B6813F0010F0DD0FFF7E8
:1020D000A3FE401B0A28F5D9636A43F40033636208
:1020E000052384F82030012038BD0020606238BD0F
:1020F00030B490F82040013CE4B2012C06D9436A88
:1021000043F480234362012030BC704700296FD123
:102110000468E46814F0030F64D0056801F11B043F
:1021200024012C5904F004049460002C6BD1056840
:1021300001F11B0424012C59640D1460056801F1A0
:102140001B0424012D59C5F34005D56005682544BD
:102150006D6805F00F051561056825446D68C5F3C8
:102160000725956105682C446468240C5461046853
:102170000A011444D4F8B8411C7004681444D4F81B
:10218000B841C4F307245C7004681444D4F8B8411F
:10219000C4F307449C7004681444D4F8B841240E76
:1021A000DC7004681444D4F8BC411C710468144405
:1021B000D4F8BC41C4F307245C7104681444D4F817
:1021C000BC41C4F307449C7104682244D2F8BC218A
:1021D000120EDA71F9B90268D36843F02003D360B4
:1021E000002091E7436A43F40013436201208BE728
:1021F0000468246914F0030F8FD1436A43F4001379
:102200004362012080E7056801F11B0424012C5979
:10221000E408546092E70268136943F020031361F5
:10222000002071E790F82030013BDBB2012B05D98B
:10223000436A43F480234362012070470268536974
:1022400019435161002070477047704770477047CD
:1022500070477047704770477047704770477047C6
:102260002DE9F84F054603685C695F689E68D3F8FE
:102270000C90D3F81080D3F818A014F0010F5AD0A6
:1022800016F0010F17D001229A6016F0020F08D144
:1022900016F0040F30D116F0080F07D04FF4805B12
:1022A0000BE0FFF7D1FF4FF0000B06E0FFF7CFFF89
:1022B0004FF0000B01E04FF0000B16F4807F0BD0C5
:1022C0002B684FF480729A6016F4007F17D116F4D1
:1022D000806F18D04BF4005B16F4803F2DD02B6834
:1022E0004FF480329A6016F4003F16D116F4802F16
:1022F00017D04BF4004B20E04FF4006BDDE728468D
:10230000FFF7A3FFE8E716F4006F02D04BF4804B11
:10231000E2E72846FFF79CFFDEE72846FFF796FF37
:102320000BE016F4002F02D04BF4803B05E028466A
:10233000FFF78FFF01E04FF0000B14F0080F07D0FC
:1023400019F0100F04D04BF4007B2B681022DA60D8
:1023500014F0040F02D019F0080F60D114F0020F2E
:1023600004D02B68DB6813F0030F5FD114F0400F2B
:1023700007D018F0100F04D04BF4806B2B6810229C
:102380001A6114F0200F02D018F0080F52D114F087
:10239000100F04D02B681B6913F0030F51D114F4F4
:1023A000003F02D017F0100F4FD114F4803F02D03D
:1023B00017F0080F50D114F4004F67D017F0040F36
:1023C00061D014F4807F04D01AF0010F01D04BF0DB
:1023D000010B14F4007F04D01AF0020F01D04BF06F
:1023E000020B14F4806F04D01AF0040F01D04BF0EC
:1023F000040B14F4006F46D01AF0700A43D0BAF1FF
:10240000300F48D02FD9BAF1500F47D0BAF1600F32
:1024100047D0BAF1400F31D14BF0400B2EE02B6882
:102420000822DA602846FFF715FF97E7284601F0F3
:10243000EDFA9BE72B6808221A612846FFF70CFF8C
:10244000A5E72846FFF707FFA9E72B6810225A6087
:102450002846FFF702FFA8E72B6808225A602846A3
:10246000FFF7FCFEA7E7BAF1100F05D0BAF1200F75
:1024700004D14BF0100B01E04BF0080B2A68936974
:1024800023F0700393612B6804225A60BBF1000FA4
:102490000AD1BDE8F88F4BF0200BEFE74BF0800B33
:1024A000ECE74BF4807BE9E76B6A4BEA03036B6272
:1024B0002846FFF7D4FEECE7074AD36823F4E0632D
:1024C0001B041B0C000200F4E060184340F0BF60E6
:1024D00040F40030D060704700ED00E030B4164B9F
:1024E000DB68C3F30223C3F10704042C28BF0424D0
:1024F0001D1D062D17D9033B012505FA04F4013CE7
:102500002140994005FA03F3013B13401943002889
:102510000BDB0901C9B200F1604000F5614080F8B1
:10252000001330BC70470023E6E700F00F000901FC
:10253000C9B2024B1954F4E700ED00E014ED00E0DD
:10254000420900F01F00012303FA00F0014B43F899
:102550002200704700E100E00138B0F1807F0AD22C
:10256000064B5860F021064A82F82310002098603C
:1025700007221A6070470120704700BF10E000E09A
:1025800000ED00E0704708B5FFF7FCFF08BD70B430
:10259000C56B066C0124B4406C60046863604368DA
:1025A000102B05D0036899600368DA6070BC70472F
:1025B00003689A600368D960F8E7000060B310B45C
:1025C00003460068154A02441549A1FB021212098C
:1025D00092001A64134ADA63022283F82120016808
:1025E00021F47F5121F030015A689C682243DC6855
:1025F00022431C6922435C6922439C692243DC69B3
:1026000022430A43026000209863012283F82120BC
:1026100083F8200010BC704701207047F8FFFDBF11
:10262000CDCCCCCC0000024038B590F82040012C35
:1026300032D0012480F8204090F82140012C04D0B1
:10264000002380F82030022038BD0446022084F8A0
:1026500021000020A0632568286820F00100286080
:102660002046FFF794FFE36A5BB12268136843F0EA
:102670000E0313602268136843F001031360002007
:1026800038BD2268136823F00403136022681368BE
:1026900043F00A031360EDE7022038BD08B590F857
:1026A0002130022B03D004238363012008BD02687C
:1026B000136823F00E0313600268136823F001030C
:1026C00013600368194A934214D0143293421FD006
:1026D000143293421ED0143293421ED014329342CD
:1026E0001ED01432934202D04FF0807203E04FF4B8
:1026F000801200E001220E4B5A60012380F8213045
:10270000002380F82030436B6BB19847002008BD50
:102710001022F0E74FF48072EDE74FF48052EAE7C1
:102720004FF48032E7E7002008BD00BF08000240F8
:102730000000024038B5C36B1A6804682568016C54
:1027400004238B401A4236D015F0040F33D023688F
:1027500013F0200F03D1236823F0040323600368E0
:10276000434A934214D01432934219D01432934204
:1027700018D01432934218D01432934218D0143225
:10278000934202D04FF0806203E04FF4800200E0F9
:102790000422384B5A60C36A002B67D0984738BD73
:1027A0004022F6E74FF48062F3E74FF48042F0E70F
:1027B0004FF48022EDE702238B401A423BD015F004
:1027C000020F38D0236813F0200F06D1236823F0BE
:1027D0000A032360012380F821300368244A9342CE
:1027E00014D0143293421BD0143293421AD01432B4
:1027F00093421AD0143293421AD01432934202D028
:102800004FF0007203E04FF4001200E00222194B77
:102810005A60002380F82030836A3BB3984738BD64
:102820002022F4E74FF40072F1E74FF40052EEE794
:102830004FF40032EBE7082303FA01F10A4215D006
:1028400015F0080F12D0236823F00E032360C16B2C
:10285000026C012303FA02F24A60836380F821309C
:10286000002380F82030036B03B1984738BD00BFC8
:1028700008000240000002400022044BDA61044AD2
:10288000136943F0010313610180704710120020A7
:10289000002002401A4BDB6813F0100F27D0194AB2
:1028A000D36943F00203D3611023154AD26812F0B2
:1028B000040F06D01349CA6942F00102CA6143F00D
:1028C00004030F4AD26912F0010F09D00D49CA69F9
:1028D00042F00402CA610A49CA6922F00102CA61CF
:1028E00040F20112934204D0054AD360704700239E
:1028F000DBE7034AD36923F00103D361704700BFCC
:1029000000200240101200200A4B1B6913F0800FB8
:102910000DD0084B084A5A6002F188325A601B6990
:1029200013F0800F01D00120704700207047002075
:10293000704700BF0020024023016745034A136926
:1029400043F0800313610020704700BF0020024065
:1029500038B50446FFF760FA0546174BDB6813F0FD
:10296000010F0AD0B4F1FF3FF7D00CB3FFF754FAD0
:10297000401B8442F1D2032038BD0F4BDB6813F0BB
:10298000200F02D020220C4BDA600B4BDB6813F0D7
:10299000100F09D1084BDB6913F0010F04D1064B6E
:1029A000DB6813F0040F05D0FFF774FF012038BD7A
:1029B000032038BD002038BD002002402DE9F84337
:1029C000234C247E012C03D102231846BDE8F88352
:1029D0001E4690460F46044601221D4B1A764CF2C5
:1029E0005030FFF7B5FF034670BB012C29D0022CF5
:1029F00024D04FF0040900244C4525D22101C1F117
:102A00002002A1F1200328FA01F106FA02F2114393
:102A100026FA03F3194389B207EB4400FFF72CFFB2
:102A20004CF25030FFF794FF0A4B1D6925F0010569
:102A30001D61034640B90134E4B2DDE74FF00209FD
:102A4000D9E74FF00109D6E70021014A1176BCE72A
:102A500010120020002002400022064BDA61064BD3
:102A60001A6942F004021A611A6942F040021A61BE
:102A7000704700BF10120020002002400022064BC9
:102A8000DA61064B1A6942F002021A6158611A694A
:102A900042F040021A6170471012002000200240EC
:102AA000264B1B7E012B46D070B50E4605460122F3
:102AB000224B1A760368022B20D04CF25030FFF7DD
:102AC00047FF90BB4FF0FF333360AC680121EA68E9
:102AD000AB6803EB82239C4228D22046FFF7CEFF4F
:102AE0004CF25030FFF734FF154A136923F002030C
:102AF00013610146B8B904F58064E8E74CF2503040
:102B0000FFF726FF08B1012110E00120FFF7A4FF25
:102B10004CF25030FFF71CFF0146094A136923F0BD
:102B20000403136102E0346000E001210022034B42
:102B30001A76084670BD0221084670471012002020
:102B400000200240F0B583B00026344671E0002D2D
:102B500000F0A180012D00D1CE68FF2B00F2AF80E4
:102B60008646FF2B00F2AE80A500DEF800200F277E
:102B7000AF4022EA070206FA05F52A43CEF8002004
:102B80004A6812F0805F53D0634A956945F00105A9
:102B90009561926902F001020192019AA508AF1CA9
:102BA0005E4A52F8272004F00307BF004FF00F0ED3
:102BB0000EFA07FE22EA0E02DFF870E1704500F01F
:102BC00088800EF5806E704500F086800EF5806E70
:102BD000704500F084800EF5806E704576D04FF021
:102BE000040E0EFA07F73A4302354C4F47F82520FA
:102BF0004A6812F4803F75D0494D2A681A432A600A
:102C00004A6812F4003F73D0454D6A681A436A60FF
:102C10004A6812F4801F71D0414DAA681A43AA6015
:102C20004A6812F4001F6FD03D4DEA681343EB6011
:102C300001340F2C6ED80122A2400B6813409A4237
:102C4000F6D14D68122D30D00BD8022D2AD07FF648
:102C50007EAF032D2FD0112D7FF47FAFCE680436C9
:102C60007BE7304FBD4216D00CD92F4FBD4212D05A
:102C700007F58037BD420ED0A7F58017BD427FF41F
:102C80006CAF08E0A7F58017BD4204D007F5803788
:102C9000BD427FF462AF8D687DB1012D08D04261E5
:102CA00008265AE7CE68083657E7CE680C3654E750
:102CB0000261082651E700264FE704264DE700F1A0
:102CC000040E4EE7A4F10805AD004EE74FF0030EE9
:102CD00087E74FF0000E84E74FF0010E81E74FF0D9
:102CE000020E7EE70E4D2A6822EA03022A6087E779
:102CF0000B4D6A6822EA03026A6089E7084DAA68F8
:102D000022EA0302AA608BE7054DEA6822EA030380
:102D1000EB608DE703B0F0BD001002400000014001
:102D200000040140000021100000311000080140A3
:102D3000014B1868704700BFB000002008B5FFF7CE
:102D4000F7FF044B5B68C3F30223034AD35CD8400C
:102D500008BD00BF00100240ECAD000808B5FFF749
:102D6000E7FF044B5B68C3F3C223034AD35CD8403C
:102D700008BD00BF00100240ECAD00080268D36837
:102D800023F0C003D360202380F8393070470268F5
:102D9000D36823F49073D3600268536923F001036E
:102DA0005361202380F83A30704790F83930DBB215
:102DB000212B01D0022070478368B3F5805F17D0C4
:102DC0000268036A591C01621B785360C38C9BB272
:102DD000013B9BB2C384DBB90268D36823F0800354
:102DE000D3600268D36843F04003D360002070478B
:102DF000036A02681B88C3F30803536003691BB9A5
:102E0000036A02330362E1E7036A01330362DDE729
:102E1000002070472DE9F04705460268136923F446
:102E20004053C1680B4313618368026913434269CD
:102E300013430168CA6822F4B05222F00C02134313
:102E4000CB600268536923F4407381690B4353617B
:102E5000D0F80080594B984557D0FFF76FFF00EB33
:102E6000800000EB80006C68A400B0FBF4F4544FC9
:102E7000A7FB043464092601FFF760FF00EB800024
:102E800000EB80006C68A400B0FBF4FAFFF756FF7B
:102E900000EB800000EB80006C68A400B0FBF4F451
:102EA000A7FB043464094FF0640909FB14A424014E
:102EB0003234A7FB0434640904F0F0043444FFF70F
:102EC0003DFF00EB800000EB80006E68B600B0FBB9
:102ED000F6F6FFF733FF00EB800000EB80006B6835
:102EE0009B00B0FBF3F0A7FB0030400909FB106921
:102EF0004FEA091909F13209A7FB0937C7F343174C
:102F00002744C8F80870BDE8F087FFF727FF00EBFB
:102F1000800000EB80006C68A400B0FBF4F4284F44
:102F2000A7FB043464092601FFF718FF00EB8000BB
:102F300000EB80006C68A400B0FBF4FAFFF70EFF12
:102F400000EB800000EB80006C68A400B0FBF4F4A0
:102F5000A7FB043464094FF0640909FB14A424019D
:102F60003234A7FB0434640904F0F0043444FFF75E
:102F7000F5FE00EB800000EB80006E68B600B0FB51
:102F8000F6F6FFF7EBFE00EB800000EB80006B68CD
:102F90009B00B0FBF3F3A7FB03235B0909FB136959
:102FA0004FEA091909F13209A7FB0937C7F343179B
:102FB0002744C8F80870BDE8F08700BF003801401A
:102FC0001F85EB5158B310B5044690F839300BB358
:102FD000242384F839302268D36823F40053D36063
:102FE0002046FFF717FF2268136923F4904313610B
:102FF0002268536923F02A0353612268D36843F49B
:103000000053D3600020E063202384F8393084F833
:103010003A3010BD80F8383001F0D2FBD8E70120FB
:103020007047000038B590F83940E4B2202C01D048
:10303000022038BD002931D0002A31D090F8383034
:10304000012B01D1022038BD13460446012280F82D
:10305000382001628384C3840025C563212280F85F
:103060003920026B0F489062226B0F48D062226BAE
:103070000E481063226B556322680432206BFFF701
:10308000D3FA23686FF040021A6084F8385022683F
:10309000536943F080035361284638BD012038BD91
:1030A000012038BD59310008A53100089B320008C5
:1030B00030B583B090F83A40E4B2202C02D0022020
:1030C00003B030BD00293DD0002A3DD090F8383003
:1030D000012B01D10220F3E713460A4604460121E1
:1030E00080F83810826283850025C563222180F82C
:1030F0003A10416B15488862616B1548C862616B74
:1031000014480863616B4D6321680431606BFFF7FD
:103110008BFA019523681A6801925A680192019A04
:1031200084F83850DA6842F48072DA6022685369B1
:1031300043F0010353612268536943F04003536134
:103140002846BDE70120BBE70120B9E7B1310008FF
:103150008F3200089B32000808B5436A0268126883
:1031600012F0200F0CD10022DA8419684A6922F08B
:1031700080024A611A68D36843F04003D36008BDF7
:10318000184600F041FB08BD08B50168CB6823F084
:103190004003CB60202380F8393000F035FB00205D
:1031A00008BD704708B5406AFFF7FBFF08BD7047D0
:1031B00008B5436A0268126812F0200F13D100228A
:1031C000DA851968CA6822F48072CA6019684A6987
:1031D00022F001024A6119684A6922F040024A61FC
:1031E000202283F83A201846FFF7E1FF08BD08B512
:1031F00090F83A30DBB2222B01D0022008BD836860
:10320000B3F5805F0FD003690BBB836A5A1C8262DF
:10321000026852681A70C38D9BB2013B9BB2C38592
:10322000F3B1002008BD826A036943B903685B6893
:10323000C3F308031380836A02338362EBE70368F6
:103240005B68DBB21380836A01338362E3E7826ADF
:10325000531C836203685B6803F07F031370DAE733
:103260000268D36823F02003D3600268D36823F494
:103270008073D3600268536923F0010353612023F4
:1032800080F83A30FFF793FF002008BD704708B57B
:10329000406AFFF7FBFF08BD704710B5446A23681A
:1032A0005A6994F83930DBB2212B10D023685A695F
:1032B00002F0400294F83A30DBB2222B11D0E36BDB
:1032C00043F01003E3632046FFF7E6FF10BD02F072
:1032D0008002002AEAD00023E3842046FFF74EFD57
:1032E000E4E7002AEBD00023E3852046FFF74FFDFB
:1032F000E5E7000010B5044602681368D16852691A
:1033000013F00F0005D113F0200F02D011F0200FA1
:1033100053D1002867D012F0010202D111F4907F3E
:1033200061D013F0010F06D011F4807F03D0E06B61
:1033300040F00100E06313F0040F04D01AB1E06B19
:1033400040F00200E06313F0020F04D01AB1E06B0A
:1033500040F00400E06313F0080F04D01AB1E26BF0
:1033600042F00802E263E26B002A48D013F0200F1B
:1033700002D011F0200F24D123685B6903F04003D1
:10338000E26B12F0080F00D13BB32046FFF7FFFCC1
:1033900023685A6912F0400F1BD05A6922F040028C
:1033A0005A61636B8BB11A4A5A63606BFFF776F907
:1033B00028B3606B436B984710BD2046FFF717FF9B
:1033C00010BD2046FFF713FFD6E72046FFF764FF46
:1033D00010BD2046FFF760FF10BD2046FFF75CFFE1
:1033E0000023E36310BD13F0800F02D011F0800FB3
:1033F00006D113F0400F02D011F0400F04D110BDE0
:103400002046FFF7D2FC10BD2046FFF7BDFEF6E7D1
:103410001534000808B5406A0023C385C384FFF74C
:103420003BFF08BDF0B50D68C5F30F2595FAA5F271
:10343000B2FA82F233E0A2F108044FF00113A34084
:1034400043F080634E681F0EC45993FAA3FEBEFA80
:103450008EFE4FEA8E0E4FF00F0C0CFA0EFE24EA91
:103460000E0493FAA3FEBEFA8EFE4FEA8E0E06FA03
:103470000EF63443C451C6681C0A26EA040E94FAB8
:10348000A4F4B4FA84F40E6906FA04F44EEA0404CF
:10349000C4604C68012C0FD0092C0DD0013235FAD4
:1034A00002F337D0012393401D42F7D0072AC2D838
:1034B00040F201139340C5E7C45993FAA3F6B6FA54
:1034C00086F6B6004FF0030E0EFA06F624EA060E54
:1034D00093FAA3F6B6FA86F6B6008C6804FA06F6F6
:1034E00046EA0E06C651CC6893FAA3FEBEFA8EFEDB
:1034F0004FEA8E0E4FF0040C0CFA0EFE26EA0E0672
:1035000093FAA3F3B3FA83F39B0004FA03F3334370
:10351000C351C3E70120F0BD30B4036A23F00103B7
:103520000362036A4468826922F073020D682A43C9
:1035300023F002030D692B4323F001034D682B4355
:103540000F4DA84207D044608261CA68426303629B
:10355000012030BC704723F008034D6943EA85031E
:1035600023F004038D6843EA850324F480748D6995
:103570002C4324F40074CD6944EA4504E3E700BF1A
:10358000002C014030B4036A23F010030362036A85
:103590004468826922F4E6420D6842EA052223F07B
:1035A00020030D6943EA051323F010034D6843EA35
:1035B0000513104DA84207D044608261CA68826337
:1035C0000362012030BC704723F080034D6943EA59
:1035D000851323F040038D6843EA851324F4806447
:1035E0008D6944EA850424F40064CD6944EAC50485
:1035F000E2E700BF002C014030B4036A23F480737B
:103600000362036A4468C26922F073020D682A43A8
:1036100023F400730D6943EA052323F480734D6896
:1036200043EA05230F4DA84207D04460C261CA682F
:10363000C2630362012030BC704723F400634D690C
:1036400043EA852323F480638D6843EA852324F4C9
:1036500080548D6944EA051424F40054CD6944EA89
:103660004514E2E7002C014030B4036A23F4805390
:103670000362036A4468C26922F4E6420D6842EAC2
:10368000052223F400530D6943EA053323F48053E4
:103690004D6843EA0533084DA84207D04460C26133
:1036A000CA6802640362012030BC704724F480447D
:1036B0008D6944EA8514F1E7002C014003681B4A38
:1036C000904226D0B0F1804F23D0A2F594329042A0
:1036D0001FD002F5806290421BD0144A90421DD048
:1036E000B0F1804F1AD0A2F59432904216D002F574
:1036F0008062904212D003608B68C3620B88836241
:103700000A4B98420FD0436943F001034361012003
:10371000704723F070034A681343DEE723F44073D5
:10372000CA681343E7E70B7C0363ECE7002C014016
:1037300008B5102910D009D9B1F5807F10D0B1F5A6
:10374000805F11D11146FFF78FFF08BD01290BD112
:103750001146FFF7E1FE08BD1146FFF713FF08BD54
:103760001146FFF749FF08BD002008BD0B7B8A68A2
:10377000134323F480634A68134323F400630A6805
:10378000134323F48053CA89134323F400530A6973
:10379000134323F480434A69134323F40043134340
:1037A0004364012070470000054BA3FB00308009F3
:1037B0000138044B586000229A6005221A60704755
:1037C000D34D621010E000E0014B1860704700BF5D
:1037D000B0000020012800D070474FF6FF739942D7
:1037E000FAD1074B012283F800280022A3F802280F
:1037F000A3F80428A3F80628024AC3F80828EBE730
:1038000044070020901000200268064BD3F80838C7
:103810001B689A4200D070470122024B83F80028AF
:10382000F9E700BF4407002008B54FF6FF710120FB
:10383000FFF7D0FF08BD0023012B10D8F0B43502EC
:1038400045EA12651402C65C002726432F43324620
:103850003E460133012BF2D90A80F0BC70470A8042
:10386000704770B40026072E09D81D0245EA12657C
:103870001402825D002322432B430136F3E7C1E9A2
:10388000002370BC704700003022044B1A60044AC9
:10389000044B1A600022044B1A7070477C0F002002
:1038A00000640040E00F0020500F002008B54201E6
:1038B00092B202EB1062144B1A60C00020F47F50E9
:1038C00020F03F005A68104458604A0192B202EB5F
:1038D00011629A60C90021F47F5121F03F01DA683A
:1038E0001144D96000229A610121D9615A611A619B
:1038F0005A621962054B1B788B4200D008BD024901
:103900000348FEF749FBF9E7540F0020500F002051
:10391000E00F0020184B1B7803B1704770B5174BB0
:103920001B68174C63600025A560E5604FF44033C9
:1039300023614FF40013636125766576A576012631
:10394000E676257765772046FEF780FA0A4B1E70EB
:1039500029462846FFF7AAFF2046FEF79BFB28B919
:1039600002210748FEF75EFC18B970BD00F0B0FCFC
:10397000F6E700F0ADFCF8E7500F00207C0F0020C8
:10398000E00F0020184B1B78012B2CD008282AD8D8
:10399000DFE800F0050A0E12161A1E2226004FF468
:1039A000E172124B1A607047E122104B1A607047A7
:1039B0005A220E4B1A6070472D220C4B1A6070472A
:1039C00024220A4B1A6070471222084B1A60704773
:1039D0000922064B1A6070470622044B1A60704792
:1039E0000422024B1A607047500F00207C0F002009
:1039F00010B50B46024600210348FEF779FB04464A
:103A000000F0C8F8204610BDE00F002000B58DB0D2
:103A100003A905A8FFF7ECFF50B9059B344A1288AB
:103A2000934208D0324A5288934257D000F0D4F8DB
:103A30000DB05DF804FB694603A8FFF7FCFEBDF876
:103A40000030002B27D0012BF0D12A4B9B6813F4B8
:103A5000804FEBD0284B00225A639A634FF080438B
:103A60005A62264B9A6000200021C3E90401C3E991
:103A70000601C3E90801C3E90A01C3E90C01C3E96E
:103A80000E01C3E91001C3E912014FF400401C49C3
:103A900008611A71CAE74FF00042194B1A6103F529
:103AA000005300225A639A63144B012119714FF09D
:103AB00080414A629A6000200021C3E90401C3E901
:103AC0000601C3E90801C3E90A01C3E90C01C3E91E
:103AD0000E01C3E91001C3E91201A7E7694603A873
:103AE000FFF7BFFEDDE90023044800F029FD9DE754
:103AF000800F002000100140002C01400800002031
:103B0000000C014000B587B000230293012203920C
:103B100005490491059206A941F8143D02A8FEF753
:103B2000BFFF07B05DF804FB00FC000870B5054658
:103B30000E461446FEF7E8FEFFF7E4FF36F8022BC8
:103B4000002329460120FEF739FF0235023CF5D15A
:103B5000FEF7F4FE70BD08B50B460146184601F0AD
:103B6000C9FD08BD08B5502202490348FFF7F3FF1D
:103B700008BD00BF800F002000FC000808B55022DF
:103B800002490348FFF7D2FF08BD00BF800F0020A5
:103B900000FC000808B50D4B1B6813B100235BB98E
:103BA00008BDFEF739F90A4B1B68C01A0A2801D96B
:103BB0000123F4E70023F2E74FF40052054B1A61AA
:103BC000FEF72AF9014B1860EAE700BFD00F00208A
:103BD000D40F00200010014008B52A4B1B6873B9B0
:103BE0000023BBB9284B1B6803BB00235BBB264BE0
:103BF0001B68002B33D00023002B3BD108BDFEF700
:103C00000BF9204B1B68C01A0A2801D90123E8E7E9
:103C10000023E6E74FF000521C4B1A610022194BBB
:103C20001A60FEF7F9F81A4B1860DBE7FEF7F4F8B4
:103C3000154B1B68C01A40F65433984201D9012332
:103C4000D4E70023D2E74FF48032124B1A610022EE
:103C50000D4B1A60FEF7E0F80F4B1860C7E7FEF750
:103C6000DBF80D4B1B68C01A642801D90123C3E798
:103C70000023C1E70122074B1A61FEF7CDF8024B82
:103C80001860BBE7D00F0020D80F002000100140C3
:103C9000D40F0020000C0140DC0F002082B0064B46
:103CA0005A6942F040025A615B6903F04003019394
:103CB000019B02B0704700BF001002402DE9F041A7
:103CC0008AB0002405940694079408940994274B1D
:103CD0009A6942F010029A619A6902F01002049205
:103CE000049A9A6942F020029A619A6902F02002CD
:103CF0000392039A9A6942F004029A619A6902F067
:103D000004020292029A9A6942F008029A619B693F
:103D100003F008030193019B154D4FF400536B61B1
:103D2000144E48F207037361134B05934FF00108DB
:103D3000CDF818800227079705A92846FFF772FBE0
:103D40000E4B05930423069305A92846FFF76AFB4B
:103D50000B4B0593CDF818800797089405A93046BA
:103D6000FFF760FB0AB0BDE8F08100BF0010024021
:103D700000100140000C01402000200440004004DD
:103D80008707800408B50948094B03601223436084
:103D900000238360C36003614361037643768376C7
:103DA000C37603774377FEF751F808BDE00F002094
:103DB0000064004030B58DB0002507950895099541
:103DC0000A950B9502950395049505950695284B44
:103DD000DA6942F00102DA61DA6902F00102019265
:103DE000019A9A6942F004029A619B6903F0040304
:103DF0000093009B40F2033302930423039302A930
:103E00001C48FFF70FFB4FF08044A36823F0070323
:103E100043F00303A360A36923F0030343F001030A
:103E2000226A22F00A02226223F47F7343F4807331
:103E300023F47C43A361236A23F0A0032362ADF83B
:103E40001C5008954FF6FF7309930A9507A9204661
:103E5000FFF734FC236823F080032360636823F0BA
:103E600070036360A36823F08003A3600DB030BDCE
:103E7000001002400008014010B586B000230193F5
:103E8000029303930493059303F1804303F50433F2
:103E9000DA6942F00202DA61DB6903F0020300939F
:103EA000009B204BDA68C2F30222C2F10703042B05
:103EB00028BF04231946131D062B30D9033A0123CA
:103EC0008B40013B03F0010393401B01DBB2164A18
:103ED00082F81D334FF0005313604723ADF80430D0
:103EE0000023029340F2E732039204930F4C01A99E
:103EF0002046FFF7E3FB236823F080032360A368D9
:103F000023F4804323F00703A360636823F0700366
:103F10006360A36823F08003A36006B010BD002295
:103F2000CDE700BF00ED00E000E100E0000400404C
:103F300070B59AB000241594169417941894199497
:103F4000202221460DA801F0E0FB07940894099473
:103F50000A940B940C94029403940494059406948C
:103F6000334EB36943F40063B361B36903F4006390
:103F70000093009B40F2CF2317932E4D15A928469E
:103F8000FFF79CFB2B6823F080032B60AB6823F4C6
:103F9000804323F00703AB6060230D930E940F94CE
:103FA000109411941294139414940DAA012128468C
:103FB000FFF7BEFBAB6923F00403AB610E940F94D3
:103FC0000DAA10212846FFF7B3FBAB6923F48063E9
:103FD000AB616B6823F070036B60AB6823F0800308
:103FE000AB600794089409948DF82840ADF82A40F6
:103FF0004FF400530B930C9407A92846FFF7B6FB28
:10400000B36943F00403B361B36903F0040301939C
:10401000019B094B02930923039302230493059404
:104020000123069302A90548FFF7FCF91AB070BDF9
:1040300000100240002C014003000304000801406E
:1040400000B583B00E4B5A6942F001025A615B69B8
:1040500003F001030193019B002211460E20FEF79D
:104060003DFA0E20FEF76CFA002211460F20FEF7F3
:1040700035FA0F20FEF764FA03B05DF804FB00BFC9
:104080000010024008B50848084B03604FF4E123D4
:10409000436000238360C36003610C22426183613B
:1040A000C361FEF78FFF08BD90100020003801406B
:1040B000531EB3F5806F00D370472DE9F0411646CB
:1040C0000F460546FDF7A8FE804695F8003853B91F
:1040D00008F10A04FDF7A0FE8442F6D2012385F818
:1040E0000038BDE8F0810023B34203DAFC5CEC54F5
:1040F0000133F9E7002385F80038B2B22946D5F834
:104100000808FEF78FFF10B1012385F80038BDE8DD
:10411000F081000010B5254A136823F0070343F02F
:10412000020313601368A2F58052136843F48033CE
:1041300013601F4B1B6813F4003FFAD01C4A5368EE
:1041400023F47C1343F4E8135360136843F0807343
:104150001360174B1B6813F0007FFAD0144B5A689A
:1041600022F0F0025A605A6822F4E06242F480625F
:104170005A605A6822F460525A605A6822F0030268
:1041800042F002025A600A4B5B6803F00C03082BF2
:10419000F9D1084C2046FFF707FB074A136843F0A4
:1041A000040313602046FFF70FFB10BD0020024000
:1041B0000010024000A24A0410E000E070B5FDF7D4
:1041C0000DFEFFF7A7FFFFF779FDFFF7DBFDFFF718
:1041D000AFFEFFF735FFFFF755FFFFF7EBFDFFF7EA
:1041E0004BFEFFF75BFD324A136843F00203136096
:1041F0006420FDF717FE2F4B012283F800280022D0
:10420000A3F802284FF480629918D3F80808FEF743
:104210004FFF08B100BFFDE7FFF736FB0620FFF7B1
:10422000B1FB244C292224492046FFF741FF234EAD
:10423000072535616420FDF7F5FD4FF4E023336178
:104240004FF08042136843F001031360FFF78AFCCC
:104250001B4E304600F0A2F91A4BDA6842F0010218
:10426000DA601A6842F001021A6000220023304628
:1042700000F066F96420FDF7D5FD134B1A6A42F091
:1042800011021A621A6842F001021A605A6C42F472
:1042900000425A64FFF73EFB2A460C492046FFF7CE
:1042A00007FF00F077FB00F0AFFCFFF795FCFAE7A3
:1042B00010E000E044070020B8AD0008000C014009
:1042C0000800002000040040002C0140E4AD00087C
:1042D00070470000934B9B6813F4804F1FD14FF041
:1042E0000042914B1A61914A002353639363012268
:1042F00002714FF080425362836000220023C0E9C4
:104300000423C0E90623C0E90823C0E90A23C0E961
:104310000C23C0E90E23C0E91023C0E9122303795E
:10432000002B40F0A9802DE9F0478246804A7E4B61
:104330001A61D0E90623C0E908234FF08042536A8E
:104340001BB2836000235362D0E91C458068FCF7F0
:1043500063F822462B46FCF7C5F804460D46CAE929
:10436000044502460B46DAE90E01FBF707FF8046DB
:104370008946CAE90689DAE91667DAE90823FBF70C
:10438000FDFE02460B4630463946FCF7ABF80646C2
:104390000F46CAE90A67DAE9182340464946FCF79E
:1043A000A1F802460B46CAE90C2330463946FBF712
:1043B000E7FEDAE91023FBF7E3FE06460F46CAE9FB
:1043C0001067DAF89090DAF894804A464346FCF792
:1043D00019FB002871D04A464346CAE91023DAE99E
:1043E0002023DAE91001FCF77DF806460F46DAE9EA
:1043F0001E2320462946FCF775F802460B46304638
:104400003946FBF7BDFE06460F46CAE91267DAF8E1
:104410009840DAF89C5022462B46FCF7F3FA002825
:104420005AD022462B46CAE912230022414BDAE930
:104430001201FCF757F822462B46FCF77DF9FCF7F2
:1044400001FB00F57A73B3F5FA6F0FD8002852DD3F
:10445000BAF8023003FB00F0374B83FB0023C01790
:10446000C0EBA310314B586300229A634FF4003223
:104470002D4B1A61BDE8F0872B4A4FF000431361C2
:104480002A4900234B638B632C4911614FF0804212
:104490005362836000220023C0E90423C0E906239D
:1044A000C0E90823C0E90A23C0E90C23C0E90E23B0
:1044B000C0E91023C0E91223704708F100484A46BA
:1044C000434630463946FCF77FFA002887D04A46F3
:1044D0004346CAE9102382E705F1004822464346D5
:1044E00030463946FCF770FA00289ED022464346F3
:1044F000CAE9122399E7002804DB0C4B00225A6317
:104500009A63B3E7094A002353634042BAF8023082
:1045100003FB00F0084B83FB0013C017C0EBA31094
:104520009063A3E700100140000C0140002C014003
:104530000200040000408F40D34D621004000200CE
:104540002DE9F041044610461946D4E91423FBF73F
:10455000C9FF06460F46D4F88880D4F88C504246EE
:104560002B46FCF74FFA60B905F1004542462B4651
:1045700030463946FCF728FA48B9C4E90E67BDE869
:10458000F08142462B46C4E90E23BDE8F081424645
:104590002B46C4E90E23BDE8F0810000D0B50446E7
:1045A000214BD3E90201C4E91601D3E90401C4E9AE
:1045B0001801D3E90601C4E91E01D3E90801C4E9E1
:1045C0002001D3E90A01C4E91C01D3E90C01C4E9C3
:1045D0001401D3E90E01C4E92201D3E91001C4E9B1
:1045E0002401D3E912670022002330463946FCF744
:1045F000EBF9B8B9C4E9286760880130FBF70CFF14
:1046000032463B46FBF76EFF06460F4620880130D8
:10461000FBF702FF02460B4630463946FCF78CF8A2
:10462000C4E92601D0BD00BF800F002030B4D0E91E
:104630001645134BC3E90245D0E91845C3E90445C3
:10464000D0E91E45C3E90645D0E92045C3E9084540
:10465000D0E91C45C3E90A45D0E91445C3E90C4536
:10466000D0E92245C3E90E45D0E92445C3E9104508
:1046700000F1A001D1E90001C3E9120130BC70478B
:10468000800F002000B583B0244B9A6942F00102EC
:104690009A619A6902F001020092009ADA6942F086
:1046A0008052DA61DB6903F080530193019B0320A0
:1046B000FDF702FF002211466FF00B00FDF70EFF21
:1046C000002211466FF00A00FDF708FF0022114694
:1046D0006FF00900FDF702FF002211466FF00400A1
:1046E000FDF7FCFE002211466FF00300FDF7F6FE19
:1046F000002211466FF00100FDF7F0FE0022114686
:104700004FF0FF30FDF7EAFE054A536823F0E063FF
:1047100043F00073536003B05DF804FB00100240E7
:104720000000014030B587B0002302930393049347
:10473000059302681F4B9A4201D007B030BD03F5C4
:10474000D633DA6942F00072DA61DA6902F0007297
:104750000092009A9A6942F008029A619B6903F0FC
:1047600008030193019B06AC4FF4807344F8103D9D
:10477000114D21462846FEF7E5F94FF400730293E8
:10478000022303930323059321462846FEF7DAF913
:104790000A4A536823F4C04343F0E06343F4804380
:1047A0005360002211461420FDF798FE1420FDF7F7
:1047B000C7FEC2E700640040000C01400000014059
:1047C0000268334B9A4200D07047F0B587B0044678
:1047D00003F558439A6942F480429A619B6903F455
:1047E00080430193019B40230293022303930323FD
:1047F0000593284F02A93846FEF7A4F980260296B1
:1048000000250395049502A93846FEF79BF9224A34
:10481000536843F0E06343F0040353601F48204BA8
:10482000036045608560C660056145612023836142
:104830004FF40053C361FDF7C1FE18BB174B636310
:104840005C621848184B03601023436000238360A8
:104850008022C2604FF400720261436183614FF4B1
:104860008053C361FDF7AAFE78B90E4B23635C62E7
:10487000002211462520FDF731FE2520FDF760FEC0
:1048800007B0F0BDFFF724FDD8E7FFF721FDECE707
:1048900000380140000C01400000014008100020D9
:1048A000580002404C100020440002407047FEE7D0
:1048B000FEE7FEE7FEE770477047704708B5FDF773
:1048C0009FFAFDF760FE08BD08B50248FDF7C8FC79
:1048D00008BD00BFE00F0020044B1B6913F0010F5F
:1048E00003D06FF00102014B1A617047002C0140A8
:1048F00008B5074B1B6913F0010F00D108BD6FF01D
:104900000102034B1A610348FFF7E4FCF6E700BF1E
:10491000000400400800002008B50248FDF70AFF27
:1049200008BD00BF4C10002008B50248FDF702FF8B
:1049300008BD00BF0810002008B50248FEF7DAFCE9
:1049400008BD00BF901000200F4B1A6842F0010212
:104950001A6059680D4A0A405A601A6822F0847237
:1049600022F480321A601A6822F480221A605A688F
:1049700022F4FE025A604FF41F029A604FF0006268
:10498000034B9A60704700BF001002400000FFF820
:1049900000ED00E038B500237F2B04D80021194A30
:1049A000D1540133F8E70022174B1A60FDF734FAAF
:1049B0000546164B93F8003853B905F10A04FDF784
:1049C0002BFA8442F5D20122104B83F8002838BD1F
:1049D0000023012B05DC0E4A995C0C4AD1540133AB
:1049E000F7E70A4B002283F8002802221946D3F881
:1049F0000808FEF717FB18B10122044B83F80028C2
:104A000038BD00BFD0100020501100204407002006
:104A1000F4AD000870B584B00291CDE900230246E0
:104A20003149324800F07AFE041E05DB631EB3F5FF
:104A3000806F2DD304B070BDFDF7EEF905462C4B09
:104A400093F8003853B905F10A04FDF7E5F98442FB
:104A5000F5D20122264B83F80028EBE700230A2B2E
:104A600005DC244A995C224AD1540133F7E7204BF4
:104A7000002283F800280B221946D3F80808FEF715
:104A8000D1FA0028D6D00122194B83F80028D1E7AB
:104A9000FDF7C2F90646164B93F8003853B906F1F4
:104AA0000A05FDF7B9F98542F5D20122104B83F8CA
:104AB0000028BFE700239C4205DD0C4AD15C0C4A6C
:104AC000D1540133F7E70A4B002283F80028A2B241
:104AD0001946D3F80808FEF7A5FA0028AAD0012243
:104AE000034B83F80028A5E704B000085411002008
:104AF000440700201CB0000870B582B0CDE9002347
:104B000002461B491B4800F009FE431EB3F5806FA7
:104B100001D302B070BD0446FDF77EF90646164B80
:104B200093F8003853B906F10A05FDF775F9854287
:104B3000F5D20122104B83F80028EAE700239C42BB
:104B400005DD0C4AD15C0C4AD1540133F7E70A4B1E
:104B5000002283F80028A2B21946D3F80808FEF70D
:104B600061FA0028D5D00122034B83F80028D0E752
:104B700028B00008541100204407002070B584B00C
:104B80000291CDE9002302461B491C4800F0C6FDF6
:104B9000431EB3F5806F01D304B070BD0446FDF72A
:104BA0003BF90646164B93F8003853B906F10A054F
:104BB000FDF732F98542F5D20122114B83F8002826
:104BC000EAE700239C4205DD0C4AD15C0C4AD15433
:104BD0000133F7E70A4B002283F80028A2B21946F6
:104BE000D3F80808FEF71EFA0028D5D00122044B9E
:104BF00083F80028D0E700BF44B00008541100201B
:104C000044070020000000008A4AD2F808385B6B95
:104C10001B685B685B42C3F30903B2F802289A423F
:104C200045D0511C8348024492F80034C1F3090274
:104C3000A0F80228B3F1FF3F00F0E7842DE9F0432C
:104C400087B0DBB28DF81730A3F16102D2B2192A16
:104C500030D8203B8DF81730774A13689DF817003D
:104C60007649C85401331360FDF7D6F80546714BF9
:104C700093F80038002B40F0928005F10A04FDF70C
:104C8000CBF88442F3D201226A4B83F800286A4BA6
:104C90001B687F2B00F2A0809DF817300D2B00F0D1
:104CA000D5800A2B00F0D28007B0BDE8F0834FF02A
:104CB000FF33BFE7A3F14102D2B2192ACCD9A3F145
:104CC0003002D2B2092AC7D92E2BC5D0202BC3D08F
:104CD000082B06D07F2B04D00D2BBDD00A2BE3D19F
:104CE000BAE7554B1B6873B3013B534A1360FDF79A
:104CF00093F805464F4B93F8003853B905F10A0471
:104D0000FDF78AF88442F5D201224A4B83F8002845
:104D1000CAE70023042B05DC494A995C454AD15473
:104D20000133F7E7434B002283F800280522194698
:104D3000D3F80808FEF776F90028B5D001223D4BDC
:104D400083F80028B0E7FDF767F80546394B93F87C
:104D5000003853B905F10A04FDF75EF88442F5D234
:104D60000122344B83F800289EE70023002B05DC4A
:104D7000344A995C2F4AD1540133F7E72D4B002276
:104D800083F8002801221946D3F80808FEF74AF9EB
:104D9000002889D00122274B83F8002884E70023CC
:104DA000002B07DC06AA1A4412F8011C214AD15430
:104DB0000133F5E71F4B002283F800280122194632
:104DC000D3F80808FEF72EF900283FF460AF01225F
:104DD000184B83F800285AE7FDF71EF80546154BD7
:104DE00093F8003853B905F10A04FDF715F8844229
:104DF000F5D201220F4B83F800284DE700232F2B1B
:104E000005DC114A995C0B4AD1540133F7E7094B91
:104E1000002283F8002830221946D3F80808FEF74C
:104E200001F900283FF438AF0122024B83F8002833
:104E300032E700BF4407002050110020D0100020AE
:104E4000F8AD000800AE000804AE0008FCF7E4FF6F
:104E50000546B24B93F80038002B5BD105F10A04EC
:104E6000FCF7DAFF8442F4D20122AC4B83F800282D
:104E700006AB0020002163E9060103AAA849A9485E
:104E800000F070FC00285FDDA74903A8FBF760F97C
:104E9000044600285BD0A54903A8FBF759F904464E
:104EA000002800F09180A24903A8FBF751F90446BD
:104EB000002800F0BE809F4903A8FBF749F904468B
:104EC000002800F0F2809C4903A8FBF741F9044652
:104ED000002800F04381994903A8FBF739F90646F9
:104EE000002840F08081DDE90045002200232046B3
:104EF0002946FBF769FD002840F06B81904BC3E920
:104F00001645002E00F0688122462B468D48FFF79B
:104F1000F3FD2CE00023012B05DC8B4A995C7F4AD2
:104F2000D1540133F7E77D4B002283F80028022299
:104F30001946D3F80808FEF775F8002898D0012222
:104F4000764B83F8002893E7FFF724FDACE6DDE914
:104F50000001FBF79FFD82B27C4B1A807C497D48A3
:104F600000F0DCFB0546431EB3F5806F02D3FFF76C
:104F700011FD99E6FCF750FF0746684B93F800389F
:104F80007BB907F10A06FCF747FF8642F5D20122FA
:104F9000624B83F80028EAE76E4B1A5D5F4B1A55A7
:104FA0000134A542F8DC5D4B002283F80028AAB248
:104FB0001946D3F80808FEF735F80028D7D00122A3
:104FC000564B83F80028D2E7604B1A886049614845
:104FD00000F0A4FB0546431EB3F5806FC7D2FCF773
:104FE0001BFF07464D4B93F800387BB907F10A06C3
:104FF000FCF712FF8642F5D20122484B83F80028C5
:10500000B5E7544B1A5D454B1A550134A542F8DCFF
:10501000424B002283F80028AAB21946D3F80808A8
:10502000FEF700F80028A2D001223C4B83F80028AC
:105030009DE7DDE90001FBF72DFD82B2434B5A806D
:105040004549444800F06AFB0546431EB3F5806FAE
:105050008DD2FCF7E1FE0746304B93F8003853B988
:1050600007F10A06FCF7D8FE8642F5D201222B4B47
:1050700083F800287BE7A54205DD364B1A5D274BF8
:105080001A550134F7E7254B002283F80028AAB20D
:105090001946D3F80808FDF7C5FF00283FF467AFAD
:1050A00001221E4B83F8002861E7284B5A882A49C1
:1050B000284800F033FB0546431EB3F5806FBFF46C
:1050C00056AFFCF7A9FE0746144B93F8003853B9C6
:1050D00007F10A06FCF7A0FE8642F5D201220F4B2B
:1050E00083F8002843E7A54205DD1A4B1A5D0B4BF8
:1050F0001A550134F7E7094B002283F80028AAB2B9
:105100001946D3F80808FDF78DFF00283FF42FAFAC
:105110000122024B83F8002829E700BF4407002042
:1051200038AE0008D010002040AE000864AE000881
:105130006CAE000890AE000898AE0008B8AE00084B
:1051400008000020C0AE000854B00008800F002006
:1051500048AE00085411002074AE0008DDE90001DB
:10516000FBF798FC82B2A049A04800F0D7FA0546A8
:10517000431EB3F5806FBFF4FAAEFCF74DFE074651
:105180009B4B93F8003853B907F10A06FCF744FE2D
:105190008642F5D20122964B83F80028E7E6A54225
:1051A00005DD924B1A5D924B1A550134F7E7904B8F
:1051B000002283F80028AAB21946D3F80808FDF7A0
:1051C00031FF00283FF4D3AE0122894B83F8002839
:1051D000CDE64FF0FF3694E622462B4685498648B9
:1051E000FFF7CCFCC3E6854903A8FAF7B1FFF0B19D
:1051F000834903A8FAF7ACFF064650BBDDE900453A
:105200000022002320462946FBF7DEFBB8B97D4F7C
:10521000D7E91A2320462946FBF764F9C7E91801A4
:1052200086B122462B467848FFF766FC9FE6754B11
:10523000D3E916236F497048FFF7ECFB97E64FF070
:10524000FF36EDE722462B4670496F48FFF796FC84
:105250008DE66F4903A8FAF77BFFC0B16D4903A83B
:10526000FAF776FF064650BBDDE900450022002331
:1052700020462946FBF7A8FBB8B9624BC3E91E4597
:10528000B6B122462B466448FFF736FC6FE65D490F
:10529000D1E91A23D1E91801FBF74EFA02460B4671
:1052A0005A495948FFF7B6FB61E64FF0FF36E7E78A
:1052B00022462B4659495848FFF760FC57E65849A3
:1052C00003A8FAF745FF38B94E4BD3E91E235349DB
:1052D0005148FFF79FFB4AE6524903A8FAF738FF07
:1052E0000646E0B9DDE900450022002320462946B4
:1052F000FBF76AFB48B9434BC3E9204546B1224658
:105300002B464948FFF7F8FB31E64FF0FF36F5E74B
:1053100022462B4645494448FFF730FC27E64449DE
:1053200003A8FAF715FFE8B1424903A8FAF710FFFE
:1053300000BBDDE90045334ED6E91A232046294655
:10534000FBF7D0F802460B4625A1D1E90001FBF797
:10535000F3F9C6E91C0122462B4637493748FFF7C7
:105360000DFC04E6274BD3E9202330492E48FFF7F4
:1053700051FBFCE5324903A8FAF7EAFEA0B921493E
:10538000D1E91A23D1E91C01FBF7ACF802460B4620
:1053900013A1D1E90001FBF7CFF902460B462649DC
:1053A0002648FFF737FBE2E5264903A8FAF7D0FEC7
:1053B0000646002854D1DDE900450022002320469E
:1053C0002946FBF701FB002840D10E4BC3E91445E9
:1053D000002E3ED022462B461B48FFF78DFBC6E52C
:1053E000182D4454FB211940A0AE00085411002090
:1053F00044070020C4AE0008C0AE0008D0AE0008CC
:10540000D8AE000808000020E0AE0008E4AE0008B6
:10541000ECAE0008F4AE0008FCAE000800AF0008D7
:105420000CAF000814AF00081CAF000820AF000844
:1054300028AF000830AF000838AF000844AF0008BC
:1054400048AF000850AF000858AF00084FF0FF36D3
:10545000BEE722462B466D496D48FFF78FFB86E578
:105460006C4903A8FAF774FE38B96B4BD3E91423DF
:1054700066496748FFF7CEFA79E5684903A8FAF765
:1054800067FE0646E0B9DDE900450022002320461C
:105490002946FBF799FA48B95F4BC3E9224546B163
:1054A00022462B465E48FFF727FB60E54FF0FF36AC
:1054B000F5E722462B465B495948FFF75FFB56E567
:1054C000594903A8FAF744FE38B9534BD3E92223CC
:1054D00054495348FFF79EFA49E5544903A8FAF79F
:1054E00037FE0646E0B9DDE90045002200232046EC
:1054F0002946FBF769FA48B9474BC3E9244546B149
:1055000022462B464A48FFF7F7FA30E54FF0FF36C0
:10551000F5E722462B4647494548FFF72FFB26E58E
:10552000454903A8FAF714FE38B93B4BD3E92423C5
:1055300040493F48FFF76EFA19E5404903A8FAF7DA
:1055400007FE074690BBDDE9004500220023204608
:105550002946FBF739FAF8B92F4EC6E92845708875
:105560000130FAF759FF22462B46FAF7BBFF804677
:10557000894630880130FAF74FFF02460B46404615
:105580004946FBF7D9F8C6E9260147B122462B4622
:105590002B48FFF7B1FAEAE44FF0FF37F5E7224670
:1055A0002B4628492648FFF7E9FAE0E4264903A8F4
:1055B000FAF7CEFD38B9184BD3E928232149204802
:1055C000FFF728FAD3E4214903A8FAF7C1FD50B93F
:1055D0001148FFF72BF8FEF7D1FA12221C491D489B
:1055E000FEF766FDC3E41C4903A8FAF7B1FD0028E5
:1055F0007FF4BDACFEF7B6FA0748FEF7CFFF1122E5
:1056000016491448FEF754FDB1E470475CAF00083A
:1056100058AF000868AF00080800002070AF00080D
:1056200078AF000884AF00088CAF000894AF000882
:105630009CAF0008A4AF0008A8AF0008B0AF0008F6
:10564000B8AF0008C0AF0008C4AF0008CCAF000876
:10565000D4AF000844070020E8AF0008F0AF00080E
:10566000002103E00B4B5B58435004310A480B4BBD
:1056700042189A42F6D30A4A02E0002342F8043B59
:10568000084B9A42F9D3FFF75FF900F00FF8FEF7E5
:1056900095FD704738B60008000000202407002060
:1056A0002807002040120020FEE7000070B500250A
:1056B0000C4E0D4CA41BA410A54209D105F070FBA3
:1056C00000250A4E0A4CA41BA410A54205D170BDAA
:1056D00056F8253098470135EEE756F825309847BB
:1056E0000135F2E72CB600082CB600082CB60008ED
:1056F00034B6000810B5431E0A44914200D110BDD3
:1057000011F8014B03F8014FF7E7034602449342B7
:1057100000D1704703F8011BF9E700000EB44FF405
:10572000027100B59CB0ADF814106FF00041049107
:1057300007914FF6FF711DAB02900690084853F891
:10574000042BADF81610006802A9019300F036F89A
:105750000022029B1A701CB05DF804EB03B0704786
:10576000B40000200EB44FF4017230B59CB01FACF1
:1057700054F8045BADF8142002900690FAF7F2FC9E
:105780000B4B03900B9300230F9314934FF6FF736F
:1057900007900848ADF816302A46234602A900684B
:1057A000019400F0DBFF1CB0BDE8304003B070474F
:1057B000B9570008B4000020002070472DE9F04FD1
:1057C000BFB0894615461F46824602F0C5FB0368F6
:1057D00018461193FAF7C6FCB9F80C300A901B066C
:1057E00018D5D9F81030ABB94021504602F0CAFBA9
:1057F000C9F80000C9F8100048B90C23CAF80030F5
:105800004FF0FF330B930B983FB0BDE8F08F402370
:10581000C9F8143000232EAC2194239322930995C8
:1058200007930D930E93159314930B931293139365
:10583000099D2B4613F8012B12B1252A40F08380D5
:10584000099BEE1A0DD084E84800239B3344239330
:10585000229B0133072B229377DC08340B9B3344C4
:105860000B932B78002B00F025870023691C1A4628
:105870004FF0FF3B1D460A208DF867300C934E1CFD
:1058800009780996069106992039582900F214845E
:10589000DFE811F0A50012041204AA001204120499
:1058A0001204120412041204AD0065001204B500C3
:1058B000B8001204D500D800D800D800D800D8000D
:1058C000D800D800D800D800120412041204120420
:1058D0001204120412041204120412040C01220114
:1058E000120422011204120412041204EB00120426
:1058F00012043C0312041204120412041204A4033E
:105900001204120485001204120412041204120478
:1059100012041204120412041204FE006B0022018D
:1059200022012201EE006B0012041204F1001204A5
:105930001E033E037203F800120483031204A6033D
:1059400012041204BE031D4673E721AA49465046BD
:1059500004F05CFA002840F08E862EAC7EE701232E
:105960002B2209998BE70F46FBE70BB18DF86720D7
:10597000AE0640F1A180073727F0070707F10803BB
:105980000893D7E90067002E77F1000305DA2D238D
:10599000764267EB47078DF867300123C7E20BB10A
:1059A0008DF86720A04B1593AB0640F1368307377F
:1059B00027F0070707F108030893D7E90067E8070E
:1059C0000BD556EA070308D030238DF868309DF8D0
:1059D000183045F002058DF869300223A4E2002A50
:1059E000BFD101232022BCE745F00105B9E73E689D
:1059F000391D002E0C96B6DA0F4676420C9645F00D
:105A00000405AEE709994E1C09782A29069110D0A1
:105A10004FF0000B09960699303909293FF633AF4C
:105A200000FB0B1B09990E4616F8011B06910996FF
:105A3000F1E73968099641EAE17B043791E745F0DF
:105A400080058EE700210C9106990C9E303900FBF1
:105A500006110C9109990E4616F8011B069106993C
:105A6000099630390929EFD90DE745F0080578E79F
:105A700045F0400575E7099909786C2905D1099920
:105A80000131099145F020056BE745F0100568E705
:105A900000263B1D08933B688DF867608DF89030B9
:105AA0004FF0010B37460DF190081CE10BB18DF85A
:105AB000672045F010055BE715F0100F07F10403B0
:105AC00003D03E680893F7175DE73E6815F0400F76
:105AD000089318BF36B2F6E70BB18DF86720073789
