:020000040800F2
:10000000005000203D460008F5370008F937000889
:10001000FD3700080138000805380008000000001E
:100020000000000000000000000000000938000887
:100030000D380008000000001138000815380008CD
:100040008546000885460008854600088546000864
:100050008546000885460008854600088546000854
:100060008546000885460008854600088546000844
:100070008546000885460008653800087138000884
:100080008546000885460008854600088546000824
:100090002538000885460008854600088546000882
:1000A0008546000831380008854600088546000866
:1000B0008546000845380008854600088546000842
:1000C00085460008854600088546000885460008E4
:1000D000854600087D3800088546000885460008EA
:1000E0008546000885460008854600080000000097
:1000F0000000000000000000000000000000000000
:0C01000000000000000000005FF808F1A3
:1001100010B5054C237833B9044B13B10448AFF341
:1001200000800123237010BD28070020000000007C
:10013000C49C000808B5034B1BB103490348AFF347
:10014000008008BD000000002C070020C49C0008AF
:1001500010F8012B11F8013B012A28BF9A42F7D071
:10016000D01A7047034613F8012B002AFBD1181A46
:100170000138704781F0004102E000BF83F0004386
:1001800030B54FEA41044FEA430594EA050F08BF32
:1001900090EA020F1FBF54EA000C55EA020C7FEAF6
:1001A000645C7FEA655C00F0E2804FEA5454D4EB73
:1001B0005555B8BF6D420CDD2C4480EA020281EA3D
:1001C000030382EA000083EA010180EA020281EA75
:1001D0000303362D88BF30BD11F0004F4FEA0131C7
:1001E0004FF4801C4CEA113102D0404261EB4101D6
:1001F00013F0004F4FEA03334CEA133302D052425C
:1002000063EB430394EA050F00F0A780A4F1010417
:10021000D5F1200E0DDB02FA0EFC22FA05F2801851
:1002200041F1000103FA0EF2801843FA05F3594137
:100230000EE0A5F120050EF1200E012A03FA0EFCB6
:1002400028BF4CF0020C43FA05F3C01851EBE371E0
:1002500001F0004507D54FF0000EDCF1000C7EEBFD
:1002600000006EEB0101B1F5801F1BD3B1F5001F3B
:100270000CD349085FEA30004FEA3C0C04F101045A
:100280004FEA445212F5800F80F09A80BCF1004F83
:1002900008BF5FEA500C50F1000041EB045141EA05
:1002A000050130BD5FEA4C0C404141EB010111F406
:1002B000801FA4F10104E9D191F0000F04BF0146B1
:1002C0000020B1FA81F308BF2033A3F10B03B3F18F
:1002D00020020CDA0C3208DD02F1140CC2F10C021F
:1002E00001FA0CF021FA02F10CE002F11402D8BF7D
:1002F000C2F1200C01FA02F120FA0CFCDCBF41EA49
:100300000C019040E41AA2BF01EB0451294330BD17
:100310006FEA04041F3C1CDA0C340EDC04F11404F4
:10032000C4F1200220FA04F001FA02F340EA0300CB
:1003300021FA04F345EA030130BDC4F10C04C4F111
:10034000200220FA02F001FA04F340EA03002946F1
:1003500030BD21FA04F0294630BD94F0000F83F43B
:10036000801306BF81F480110134013D4EE77FEA1E
:10037000645C18BF7FEA655C29D094EA050F08BF6A
:1003800090EA020F05D054EA000C04BF194610464B
:1003900030BD91EA030F1EBF0021002030BD5FEA8F
:1003A000545C05D14000494128BF41F0004130BDB7
:1003B00014F580043CBF01F5801130BD01F000450B
:1003C00045F0FE4141F470014FF0000030BD7FEA7E
:1003D000645C1ABF194610467FEA655C1CBF0B4679
:1003E000024650EA013406BF52EA033591EA030F90
:1003F00041F4002130BD00BF90F0000F04BF002188
:10040000704730B54FF4806404F132044FF00005BA
:100410004FF0000150E700BF90F0000F04BF002133
:10042000704730B54FF4806404F1320410F0004599
:1004300048BF40424FF000013EE700BF42004FEA94
:10044000E2014FEA31014FEA02701FBF12F07F4311
:1004500093F07F4F81F06051704792F0000F14BF0E
:1004600093F07F4F704730B54FF4607401F0004552
:1004700021F0004120E700BF50EA010208BF7047A9
:1004800030B54FF000050AE050EA010208BF70479E
:1004900030B511F0004502D5404261EB41014FF407
:1004A000806404F132045FEA915C3FF4DCAE4FF00B
:1004B00003025FEADC0C18BF03325FEADC0C18BFF2
:1004C000033202EBDC02C2F1200300FA03FC20FA43
:1004D00002F001FA03FE40EA0E0021FA02F1144490
:1004E000C1E600BF70B54FF0FF0C4CF4E06C1CEAA5
:1004F00011541DBF1CEA135594EA0C0F95EA0C0F1A
:1005000000F0DEF82C4481EA030621EA4C5123EA8C
:100510004C5350EA013518BF52EA033541F48011BB
:1005200043F4801338D0A0FB02CE4FF00005E1FB6E
:1005300002E506F00042E0FB03E54FF00006E1FBB8
:1005400003569CF0000F18BF4EF0010EA4F1FF04FB
:10055000B6F5007F64F5407404D25FEA4E0E6D413B
:1005600046EB060642EAC62141EA55514FEAC5204C
:1005700040EA5E504FEACE2EB4F1FD0C88BFBCF5C8
:10058000E06F1ED8BEF1004F08BF5FEA500E50F179
:10059000000041EB045170BD06F0004646EA01013F
:1005A00040EA020081EA0301B4EB5C04C2BFD4EB71
:1005B0000C0541EA045170BD41F480114FF0000E6A
:1005C000013C00F3AB8014F1360FDEBF002001F0D8
:1005D000004170BDC4F10004203C35DA0C341BDC52
:1005E00004F11404C4F1200500FA05F320FA04F024
:1005F00001FA05F240EA020001F0004221F0004158
:1006000010EBD37021FA04F642EB06015EEA430ECA
:1006100008BF20EAD37070BDC4F10C04C4F12005FA
:1006200000FA04F320FA05F001FA04F240EA0200AD
:1006300001F0004110EBD37041F100015EEA430E7E
:1006400008BF20EAD37070BDC4F1200500FA05F29E
:100650004EEA020E20FA04F301FA05F243EA02031D
:1006600021FA04F001F0004121FA04F220EA02002C
:1006700000EBD3705EEA430E08BF20EAD37070BD72
:1006800094F0000F0FD101F00046400041EB010152
:1006900011F4801F08BF013CF7D041EA060195F034
:1006A000000F18BF704703F00046520043EB0303EE
:1006B00013F4801F08BF013DF7D043EA06037047DB
:1006C00094EA0C0F0CEA135518BF95EA0C0F0CD0E6
:1006D00050EA410618BF52EA4306D1D181EA03012C
:1006E00001F000414FF0000070BD50EA410606BF26
:1006F0001046194652EA430619D094EA0C0F02D16B
:1007000050EA013613D195EA0C0F05D152EA0336AF
:100710001CBF104619460AD181EA030101F00041CD
:1007200041F0FE4141F470014FF0000070BD41F016
:10073000FE4141F4780170BD70B54FF0FF0C4CF4F0
:10074000E06C1CEA11541DBF1CEA135594EA0C0F0F
:1007500095EA0C0F00F0A7F8A4EB050481EA030E5C
:1007600052EA03354FEA013100F088804FEA033343
:100770004FF0805545EA131343EA12634FEA022211
:1007800045EA111545EA10654FEA00260EF00041D2
:100790009D4208BF964244F1FD0404F5407402D224
:1007A0005B084FEA3202B61A65EB03055B084FEAB5
:1007B00032024FF480104FF4002CB6EB020E75EBB2
:1007C000030E22BFB61A754640EA0C005B084FEADA
:1007D0003202B6EB020E75EB030E22BFB61A754657
:1007E00040EA5C005B084FEA3202B6EB020E75EBA2
:1007F000030E22BFB61A754640EA9C005B084FEA1A
:100800003202B6EB020E75EB030E22BFB61A754626
:1008100040EADC0055EA060E18D04FEA051545EA15
:1008200016754FEA06164FEAC30343EA52734FEABE
:10083000C2025FEA1C1CC0D111F4801F0BD141EA37
:1008400000014FF000004FF0004CB6E711F4801F9C
:1008500004BF01430020B4F1FD0C88BFBCF5E06F7C
:100860003FF6AFAEB5EB030C04BFB6EB020C5FEA8C
:10087000500C50F1000041EB045170BD0EF0004EE1
:100880004EEA113114EB5C04C2BFD4EB0C0541EA13
:10089000045170BD41F480114FF0000E013C90E610
:1008A00045EA060E8DE60CEA135594EA0C0F08BFD4
:1008B00095EA0C0F3FF43BAF94EA0C0F0AD150EAD3
:1008C00001347FF434AF95EA0C0F7FF425AF104666
:1008D00019462CE795EA0C0F06D152EA03353FF48E
:1008E000FDAE1046194622E750EA410618BF52EA0B
:1008F00043067FF4C5AE50EA41047FF40DAF52EADF
:1009000043057FF4EBAE12E74FF0FF3C06E000BF7B
:100910004FF0010C02E000BF4FF0010C4DF804CD88
:100920004FEA410C7FEA6C5C4FEA430C18BF7FEA48
:100930006C5C1BD001B050EA410C0CBF52EA430C76
:1009400091EA030F02BF90EA020F0020704710F1F6
:10095000000F91EA030F58BF994208BF90422CBF85
:10096000D8176FEAE37040F0010070474FEA410C7E
:100970007FEA6C5C02D150EA013C07D14FEA430C9C
:100980007FEA6C5CD6D152EA033CD3D05DF8040B0D
:10099000704700BF8446104662468C46194663463F
:1009A00000E000BF01B5FFF7B7FF002848BF10F116
:1009B000000F01BD4DF808EDFFF7F4FF0CBF01205B
:1009C00000205DF808FB00BF4DF808EDFFF7EAFFD7
:1009D00034BF012000205DF808FB00BF4DF808ED92
:1009E000FFF7E0FF94BF012000205DF808FB00BF87
:1009F0004DF808EDFFF7CEFF94BF012000205DF811
:100A000008FB00BF4DF808EDFFF7C4FF34BF01201D
:100A100000205DF808FB00BF4FEA410C7FEA6C5CE8
:100A200002D150EA013C0AD14FEA430C7FEA6C5CE8
:100A300002D152EA033C02D14FF0000070474FF060
:100A4000010070474FEA410212F5001215D211D58C
:100A50006FF47873B3EB625212D94FEAC12343F0BB
:100A6000004343EA505311F0004F23FA02F018BF3D
:100A7000404270474FF00000704750EA013005D106
:100A800011F0004008BF6FF0004070474FF00000C9
:100A9000704700BF4A0011D212F5001211D20DD5D5
:100AA0006FF47873B3EB62520ED44FEAC12343F074
:100AB000004343EA505323FA02F070474FF000001E
:100AC000704750EA013002D14FF0FF3070474FF0CD
:100AD000000070474FEA4102B2F1E04324BFB3F592
:100AE000001CDCF1FE5C0DD901F0004C4FEAC002A5
:100AF0004CEA5070B2F1004F40EB830008BF20F089
:100B00000100704711F0804F21D113F13872BCBF42
:100B100001F00040704741F480114FEA5252C2F197
:100B20001802C2F1200C10FA0CF320FA02F018BFE0
:100B300040F001004FEAC1234FEAD32303FA0CFC33
:100B400040EA0C0023FA02F34FEA4303CCE77FEAC2
:100B5000625307D150EA01331EBF4FF0FE4040F40C
:100B60004000704701F0004040F0FE4040F40000BB
:100B7000704700BF53B94AB9002908BF00281CBFFD
:100B80004FF0FF314FF0FF3000F07AB9ADF1080CB3
:100B90006DE904CE00F006F8DDF804E0DDE902239B
:100BA00004B070472DE9F0478C460E460446089D78
:100BB000002B50D18A4217466CD9B2FA82FEBEF1A0
:100BC000000F0BD0CEF1200C01FA0EF620FA0CFC2F
:100BD00002FA0EF74CEA060C00FA0EF43A0CBCFBD3
:100BE000F2F9BBB202FB19CC09FB03FA4FEA144835
:100BF00048EA0C46B2450AD9F61909F1FF3180F0EE
:100C00002581B24540F22281A9F102093E44A6EBBA
:100C10000A06B6FBF2F002FB106600FB03F3A4B277
:100C200044EA0644A34209D9E41900F1FF3280F0F6
:100C30000B81A34240F2088102383C440021E41AAF
:100C400040EA0940002D62D0002324FA0EF42C6003
:100C50006B60BDE8F0878B4207D9002D55D000218D
:100C600085E841000846BDE8F087B3FA83F1002922
:100C700040F08F80B34202D3824200F2FC80841A9B
:100C800066EB03060120B446002D40D085E8101025
:100C9000BDE8F08712B90127B7FBF2F7B7FA87FE74
:100CA000BEF1000F35D10121F61B4FEA174C1FFA98
:100CB00087F8B6FBFCF20CFB126608FB02F0230C73
:100CC00043EA0646B04207D9F61902F1FF3302D2D1
:100CD000B04200F2D2801A46361AB6FBFCF00CFB8A
:100CE000106608FB00F8A3B243EA0644A04507D902
:100CF000E41900F1FF3302D2A04500F2B980184692
:100D0000A4EB080440EA02409CE729462846BDE8D7
:100D1000F08707FA0EF7CEF1200326FA03F24FEA26
:100D2000174CB2FBFCF11FFA87F80CFB112206FAF4
:100D30000EF620FA03F301FB08F933431E0C46EAD2
:100D40000246B14500FA0EF409D9F61901F1FF3255
:100D500080F08C80B14540F2898002393E44A6EB98
:100D60000906B6FBFCF00CFB106200FB08F99EB212
:100D700046EA0246B14507D9F61900F1FF3371D2B0
:100D8000B1456FD902383E44A6EB090640EA01415D
:100D90008FE7C1F1200722FA07F88B4048EA0303E6
:100DA00026FA07F44FEA134EB4FBFEF91FFA83FC50
:100DB0000EFB19448E4020FA07F809FB0CFA48EAAA
:100DC00006084FEA184646EA0444A24502FA01F230
:100DD00000FA01F608D9E41809F1FF3044D2A2451F
:100DE00042D9A9F102091C44A4EB0A04B4FBFEF0A9
:100DF0000EFB104400FB0CFC1FFA88F848EA044480
:100E0000A44507D9E41800F1FF3E29D2A44527D90B
:100E100002381C4440EA0940A0FB0289A4EB0C0CF8
:100E2000CC45C246CE4615D312D055B1B6EB0A0317
:100E30006CEB0E0606FA07F7CB401F43CE402F603F
:100E40006E600021BDE8F0871046F7E68946DEE6D1
:100E50004645EAD2B8EB020A69EB030E0138E4E733
:100E60007046D7E718468FE78146BDE7114676E71B
:100E700002383C4444E7084606E7023A3E442BE782
:100E8000704700BF38B54FF47A730D490D4A0978A1
:100E90001268B3FBF1F30546B2FBF3F000F0A4FBDC
:100EA00008B90F2D01D9012038BD04460246294654
:100EB0004FF0FF3000F056FB034B20461D6038BD5D
:100EC00000000020B000002004000020074A08B500
:100ED0001368032043F01003136000F031FB00207F
:100EE000FFF7D0FF02F070FB002008BD0020024099
:100EF000034A044B11681B780B441360704700BF12
:100F00000C12002000000020014B1868704700BF41
:100F10000C12002038B50446FFF7F6FF631C0546A7
:100F200002D0044B1B781C44FFF7EEFF401B8442A9
:100F3000FAD838BD0000002000287DD0F8B590F820
:100F400020300446002B74D02268136823F002037B
:100F50001360FFF7D9FF054604E0FFF7D5FF401BFC
:100F60000A285DD823685A689107F6D41A6842F0B7
:100F700001021A60FFF7C8FF054604E0FFF7C4FF4F
:100F8000401B0A284CD823685A68D207F6D5227E1F
:100F90000025012A1A684FF001070CBF42F08002B9
:100FA00022F080021A60627E012A1A680CBF42F0A9
:100FB000400222F040021A60A27E012A1A680CBF89
:100FC00042F0200222F020021A60E27E012A1A6812
:100FD0000CBF22F0100242F010021A60227F012A98
:100FE0001A680CBF42F0080222F008021A60627F01
:100FF000012A1A680CBF42F0040222F004021A60AF
:10100000E168A268266960690A4361683243024365
:1010100001390A43DA612846656284F82070F8BD18
:101020000522636A012043F40033636284F82020C0
:10103000F8BD02F019FB87E70120704790F82030D7
:101040000246013B012B05D9536A012043F480235A
:1010500053627047F0B501244869136800F01F021D
:1010600004FA02F2D543D3F80042CE6944F00104F9
:10107000C3F80042D3F81C422C40C3F81C429EB374
:10108000012E13D18E8803EBC0040868D3F80CE25C
:101090008F6846EA0046888942EA0E0E40EA074019
:1010A000C3F80CE2C4F84062C4F84402886990BBFB
:1010B000D3F804022840C3F80402086998BBD3F8A7
:1010C00014022840C3F81402096A012904D1D3F894
:1010D0001C120A43C3F81C22D3F80022002022F07D
:1010E0000102C3F80022F0BDCC688E88D3F80C72E0
:1010F000D1F808E046EA04460C8803EBC0002F4014
:1011000044EA0E44C3F80C72C0F84062C0F844428E
:1011100088690028CCD0D3F804021043C3F8040235
:1011200008690028CBD0D3F814021043C3F8140286
:10113000CAE700BF38B590F82030012B06D0012354
:10114000426A42F400224262184638BD0223026815
:1011500080F820301368044623F001031360FFF782
:10116000D3FE054604E0FFF7CFFE401B0A2806D851
:1011700023685B6813F00103F5D16362E4E705219E
:10118000626A012342F40032626284F82010DBE7D5
:101190002DE9F04190F820500446013D012D06D97B
:1011A000636A012043F480236362BDE8F08105682F
:1011B00000295AD0286980075AD008012E18D6F87D
:1011C000B07107F004079760002F5FD1D6F8B071B7
:1011D0007F0D1760D6F8B0C10544D6F8B4E1D6F853
:1011E000B471D6F8B461D5F8B881CCF3400C0EF0E8
:1011F0000F05C7F30727360CC2F80CC015619761BD
:10120000566183F8008022680244D2F8B821120A9D
:101210005A7022680244D2F8B821120C9A702268DF
:101220000244D2F8B821120EDA7022680244D2F8D1
:10123000BC211A7122680244D2F8BC21120A5A71E8
:1012400022680244D2F8BC21120C9A712268104420
:10125000D0F8BC21120EDA71226881B9D368084631
:1012600043F02003D360BDE8F081E8688607A4D18D
:10127000636A012043F400136362BDE8F0811369DF
:10128000002043F020031361BDE8F081D6F8B0716F
:10129000FF0857609EE700BF90F820300246013BF0
:1012A000012B05D9536A012043F480235362704710
:1012B000026800205369194351617047704700BFAD
:1012C000704700BF704700BF704700BF704700BF46
:1012D000704700BF704700BF704700BF704700BF36
:1012E000704700BF704700BF704700BF2DE9F84F3F
:1012F000036806465C69D3F8048014F001059F6812
:10130000D3F80CB0D3F81090D3F818A025D017F06C
:10131000010540F09F804FF480414FF40052F805E2
:101320000DD54FF4807033689860BB0500F1CA801A
:10133000780500F1DA803B0540F1EB800D46F803BB
:101340000BD54FF480323368B9039A6000F1B68050
:101350007A0340F1CC8045F40045270702D51BF005
:10136000100F71D1600703D51BF0080F40F0828089
:10137000A10704D53368DB689A0740F090806306C4
:1013800002D519F0100F59D1A70603D519F0080F8F
:1013900040F08980E00604D533681B69990740F066
:1013A0008980A20302D518F0100F6AD1E30302D599
:1013B00018F0080F6CD1270405D518F0040F0BD1D5
:1013C000336804225A602DB1736A30461D4375623A
:1013D000FFF78AFFBDE8F88FE00504D51AF0010F8A
:1013E00018BF45F00105A10504D51AF0020F18BF7A
:1013F00045F00205620504D51AF0040F18BF45F048
:1014000004052305DCD51AF0700AD9D0BAF1300FE3
:1014100000F08D8070D9BAF1500F00F08580BAF1DC
:10142000600F00F08780BAF1400F01D145F0400510
:1014300033689A6922F070029A61C2E71022336819
:1014400045F480651A619FE71022336845F4007502
:10145000DA6087E701229A60BB0737D47D073DD465
:1014600017F0080559D04FF4A0414FF440524FF403
:10147000805554E7082233683046DA60FFF72AFFC8
:1014800076E71022336830465A60FFF729FF8DE770
:101490000822336830465A60FFF724FF8BE7304656
:1014A00001F002FA6BE70822336830461A61FFF751
:1014B00015FF6FE73046FFF70FFF72E73046FFF783
:1014C00001FF4AE73046FFF7FBFE38E7FFF7F6FE7D
:1014D00000254FF480414FF4005220E74FF4904133
:1014E0004FF420524FF4006519E7154627E73B03F8
:1014F0000BD545F4803530E7BAF1100F1DD0BAF1A5
:10150000200F95D145F0100592E73046FFF7E0FE39
:1015100023E73046FFF7DAFE11E7FFF7D5FE4FF479
:1015200080414FF40052FAE645F0800580E745F02F
:1015300020057DE745F480757AE745F0080577E7F3
:101540004FF6FF01064A0002D36800F4E0600B404A
:1015500043F0BF6343F400330343D360704700BFDD
:1015600000ED00E0184B70B4DC68C4F30224C4F151
:101570000706042E04F1040328BF0426062B17D9FE
:101580000125033CA540013D2A400123B340013B16
:101590001940A140002841EA02010CDB090100F1D9
:1015A0006040C9B200F5614080F8001370BC70471C
:1015B00000221446E9E7054B00F00F000901C9B20B
:1015C0000344197670BC704700ED00E0FCEC00E0CD
:1015D000012300F01F01034A40098B4042F82030EC
:1015E000704700BF00E100E00138B0F1807F0DD20C
:1015F00030B4F02500220721054B064C586084F8D2
:101600002350104630BC9A60196070470120704723
:1016100010E000E000ED00E0704700BF08B5FFF704
:10162000FBFF08BD50B30246F0B4002401268768D2
:10163000436805681249C0683B43124F294403437D
:101640001069A7FB0171576903433B4397692868F9
:101650003B43D76920F47F503B4320F030000A4FD2
:10166000090903438900D763204611642B60946302
:1016700082F8204082F82160F0BC7047012070475A
:10168000F8FFFDBFCDCCCCCC00000240F0B590F807
:101690002040012C0CD0012590F8214080F82050EA
:1016A000AC4208D00022022380F820201846F0BD6A
:1016B00002231846F0BD00264FF0020C0568866331
:1016C0002E68076CD0F83CE0BC4026F00106476865
:1016D00080F821C02E60CEF804406B60C36A102FE2
:1016E0000BBFAA60A960E960EA604BB12B6843F0C8
:1016F0000E032B602A68002342F001022A60D5E71E
:101700002B6823F004032B602B6843F00A032B6043
:10171000F0E700BF38B590F82130022B04D0042246
:1017200001248263204638BD03681D491A688B4234
:1017300022F00E021A601A6822F001021A6021D00B
:10174000184A93421CD0143293421FD01432934251
:101750001FD0143293421FD0143293420CBF4FF467
:1017600080134FF08073012100240F4D426B6B609A
:1017700080F8211080F8204032B19047204638BDD3
:101780001023F0E70123EEE71446CBE74FF4807314
:10179000E9E74FF48053E6E74FF48033E3E700BF17
:1017A000080002401C000240000002400422F0B485
:1017B000C66B016C346803688A4022421D681FD0E2
:1017C0006F071DD51A68920603D41A6822F0040226
:1017D0001A603F4A93425DD01432934262D0143271
:1017E000934269D0143293426CD0143293425BD04E
:1017F000143293420CBF4FF480034FF080634AE0F1
:1018000002228A40224222D0AF0720D51A689106D0
:1018100006D401211A6822F00A021A6080F8211009
:101820002B4A93422CD01432934243D01432934229
:1018300045D01432934248D01432934237D01432F8
:1018400093420CBF4FF400134FF0007319E00822CD
:101850008A4022421CD02A071AD5012200271C6880
:10186000056B24F00E0402FA01F11C6071608263C2
:1018700080F8212080F8207055B12B46F0BC184725
:1018800002230021134C826A636080F820103AB969
:10189000F0BC704704230F49C26A4B60002AF7D09E
:1018A000F0BC10474023F6E74FF48023F3E74FF4F2
:1018B0000033E6E72023E4E74FF48063EBE74FF4DF
:1018C0000073DEE74FF48043E5E74FF40053D8E7B9
:1018D00008000240000002402DE9F04FDFF8D481FB
:1018E00083B098F81840012C03D1022003B0BDE862
:1018F000F08F9A46012393460D46814688F81830AA
:10190000FFF702FB6A4C4CF25037064605E0FFF742
:10191000FBFA801BB84200F2C580E368D807F6D412
:10192000E368990644BF2023E360614BDA68D2067E
:1019300005D4DA69D70702D4DB685E072FD55C4B84
:10194000DB6813F0100300F0AF80D8F81C301421CE
:1019500043F00203C8F81C301023554AD2685407DC
:1019600006D50B46D8F81C2042F00102C8F81C200E
:101970004F4AD169C80709D5D8F81C1041F00401B5
:10198000C8F81C10D16921F00101D1610120484A39
:10199000D360002388F8183003B0BDE8F08FB9F1A8
:1019A000010F00F08380B9F1020F14BF042302235A
:1019B00000274CF25036013BA946DBB2023505EB5D
:1019C00043033B4C01930023C7F12001C8F81C30AE
:1019D0000AFA01F12BFA07F30B43A7F12001226960
:1019E0002AFA01F10B4342F001029BB22261A9F8ED
:1019F0000030FFF789FA054604E0FFF785FA401B3F
:101A0000B0424BD8E368D907F7D4E3689A0644BFDD
:101A10002023E360E368DB0606D4E369DD0703D433
:101A2000E06810F004002ED0214BDB6813F01003A7
:101A300036D0D8F81C30142143F00203C8F81C300B
:101A400010231B4AD268500706D50B46D8F81C2035
:101A500042F00102C8F81C20154AD169C90709D50E
:101A6000D8F81C1041F00401C8F81C10D16921F00D
:101A70000101D16101200E4AD3600D4A136923F0A0
:101A80000103136185E7236909F1020923F00103CA
:101A90002361019B10374B4595D17AE70320ECE792
:101AA0000421CEE7032074E7042156E74B467FE785
:101AB0000020024010120020064B186910F0800030
:101AC00006D00549054A59605A601869C0F3C0102C
:101AD000704700BF0020024023016745AB89EFCD6E
:101AE000034A0020136943F080031361704700BF6D
:101AF0000020024070B50446FFF706FA0646294D5D
:101B0000601C31D1274AD368D907FCD4254BDA6849
:101B1000960644BF2022DA60224BDA68D50602D44A
:101B2000DA69D40733D51F4BDB6813F0100326D1D5
:101B300004211C4AD268500705D50B461A49CA69C8
:101B400042F00102CA61174AD169C90708D516488F
:101B5000C16941F00401C161D16921F00101D16184
:101B60000120104AD36070BDEB68DB07CED524B1ED
:101B7000FFF7CAF9801B8442C2D2032070BD0A4815
:101B80001421C269102342F00202C261D1E7D86871
:101B900010F00400E7D0034BDB6813F01003C7D04C
:101BA000EDE700BF00200240101200202DE9F843AD
:101BB0002E4E337E012B43D0012203688146022B37
:101BC000884632764CF2503032D0FFF793FF90BB0C
:101BD0004FF0FF33C8F80030D9F80850D9F80C306E
:101BE00005EB83239D4226D20746214C09E0D9F814
:101BF0000C20D9F8083005F5806503EB8223AB4251
:101C00001AD9F76123694CF2503043F00203236183
:101C10006561236943F040032361FFF76BFF23698C
:101C200023F0020323610028E1D0C8F8005003E04C
:101C3000FFF760FF38B1012000233376BDE8F88359
:101C40000220BDE8F8830A4CF06123694CF2503061
:101C500043F004032361236943F040032361FFF74A
:101C600049FF236923F004032361E5E710120020F4
:101C7000002002402DE9F04F4FF0000885B04346A8
:101C80006FF01F06DFF8DCE1DFF8DCC16F4F00907A
:101C900005E00133102B06F1040600F089800122D3
:101CA0000C689A401440A242F3D14D68122D00F006
:101CB000A38000F28C80022D00F0A58040F281808C
:101CC000032D00F09D80112D02D1CA6802F1040895
:101CD000FF2C70D8009A4FEA830A914612680F25AC
:101CE00005FA0AFB22EA0B0208FA0AFA42EA0A0299
:101CF000C9F80020D1F804A01AF0805FC9D0DEF83E
:101D0000189023F0030249F00109CEF81890DEF88C
:101D1000189002F1804209F00109CDF80C9002F50B
:101D2000803203F00309DDF80CB04FEA8909D2F8DC
:101D300008B005FA09F52BEA050001900098604506
:101D400077D0434DA84277D0424DA84279D0424D3A
:101D5000A8420CBF4FF0030B4FF0040B0BFA09F92C
:101D600001981AF4803F40EA090595603A6803F14A
:101D7000010314BF2243A2433A607A681AF4003F79
:101D800014BF2243A2437A60BA681AF4801F14BFBA
:101D90002243A243BA60FA681AF4001F14BF144326
:101DA00022EA0404102BFC6006F104067FF477AFEE
:101DB00005B0BDE8F08F0098B246426800F1040912
:101DC0008DE7A5B1012D83D1D1F80C8080E72348A0
:101DD00085420CD01BD92248854208D000F58030BE
:101DE000854204D0DFF884904D457FF471AF8D6853
:101DF000BDB94FF004086BE7CA6802F10C0867E749
:101E00004FF0000864E7CA6802F1080860E7DFF8ED
:101E100060904D45EBD009F580394D457FF458AFC2
:101E2000E5E70098012D0CBF026142614FF0080800
:101E30004EE74FF0000993E74FF0010B0BFA09F959
:101E40008EE74FF0020B0BFA09F989E70004014015
:101E5000000C01400010014000140140000021105E
:101E60000000311000100240000801400000221064
:101E700000001110044B05495B68054AC3F30223B7
:101E8000CB5C1068D840704700100240149D0008D9
:101E9000B0000020044B05495B68054AC3F3C22328
:101EA000CB5C1068D840704700100240149D0008B9
:101EB000B00000202DE9F04782460468C16822691D
:101EC000836822F440520A432261E2680069DAF82A
:101ED000141022F4B052034322F00C020B431343BC
:101EE000E3606369DAF81810514A23F440730B4336
:101EF0009442636159D0FFF7BDFFDAF8043000EB7C
:101F0000800000EB80009B00B0FBF3F3494F4FF0E3
:101F10006408A7FB03235B091D01FFF7ABFFDAF899
:101F2000042000EB8000930000EB8000B0FBF3F690
:101F3000FFF7A0FFDAF8042000EB8000930000EB2D
:101F40008000B0FBF3F3A7FB03235B0908FB1363DB
:101F50001B013233A7FB03235B0903F0F006FFF7F5
:101F600089FFDAF8042000EB800000EB800093008A
:101F7000B0FBF3F9FFF77EFFDAF8043000EB8000E6
:101F800000EB80009B00B0FBF3F3A7FB03235B098E
:101F900008FB13931B013233A7FB0323C3F3431343
:101FA00033432B44A360BDE8F087FFF773FFDAF8F3
:101FB000043000EB800000EB80009B00B0FBF3F3EB
:101FC0001C4F4FF06408A7FB03235B091D01FFF7BB
:101FD00061FFDAF8042000EB8000930000EB800042
:101FE000B0FBF3F6FFF756FFDAF8042000EB8000B1
:101FF000930000EB8000B0FBF3F3A7FB03235B0926
:1020000008FB13631B013233A7FB03235B0903F0B7
:10201000F006FFF73FFFDAF8042000EB80009300A2
:1020200000EB8000B0FBF3F9FFF734FFA4E700BF3B
:10203000003801401F85EB5160B338B590F8393056
:10204000044603F0FF0203B32423226884F83930E6
:10205000D368204623F40053D360FFF72BFF0025FD
:102060002021236828461A6922F490421A615A698D
:1020700022F02A025A61DA6842F40052DA60E5631B
:1020800084F8391084F83A1038BD80F8382001F00F
:1020900037FBD9E701207047F8B590F83940202C7C
:1020A00001D00220F8BD51B34AB390F83840012C5A
:1020B000F7D00446002613464FF0210E0127006B8F
:1020C000E284104AA384E66384F83870216284F8BD
:1020D00039E00D4F0D4D826222684663C762056389
:1020E0000432FFF7D3FA6FF04002236830461A60DB
:1020F0005A6984F8386042F080025A61F8BD0120C4
:10210000F8BD00BFA5210008D5210008B9220008AC
:10211000F0B590F83A4083B0202C02D0022003B0F2
:10212000F0BD002935D0002A33D090F83830012B8B
:10213000F4D004460025134601270A462226406BA8
:102140001549A262A385E56384F8387084F83A6083
:10215000124F8162124E21684563C76206630431E3
:10216000FFF794FA236801951A68284601925A6885
:1021700084F838500192019ADA6842F48072DA6089
:102180005A6942F001025A615A6942F040025A61AA
:10219000C5E70120C3E700BFE5210008A922000828
:1021A000B922000808B50368406A1B6813F02003D1
:1021B0000AD10268C384536923F080035361D36852
:1021C00043F04003D36008BD00F04CFB08BD00BFE6
:1021D000704700BF08B5406AFFF7FAFF08BD00BFAF
:1021E000704700BF08B50368406A1B6813F02003FE
:1021F00010D120210268C385D36823F48073D36093
:10220000536923F001035361536923F04003536181
:1022100080F83A10FFF7E4FF08BD00BF8368B3F50C
:10222000805F2CD0036973B10368826A5B68511CBC
:1022300003F07F0381621370C38D013B9BB2C385A2
:1022400043B1002070470268836A5268591C81625A
:102250001A70F1E710B520240268D16821F020013E
:10226000D160D16821F48071D160516921F0010100
:10227000516180F83A40FFF7B3FF002010BD0269BA
:10228000836A3AB902685268C2F3080223F8022B43
:102290008362D1E702685268D2B223F8012B8362CD
:1022A000CAE700BF704700BF08B5406AFFF7FAFFF2
:1022B00008BD00BF704700BF08B5436A1A6850697F
:1022C00093F8391021291CD0506993F83A1022292B
:1022D00007D0DA6B184642F01002DA63FFF7EAFF24
:1022E00008BD4106F5D500212020D985D16821F40B
:1022F0009071D160516921F00101516183F83A0078
:10230000E7E70006E0D500212020D984D16821F03C
:10231000C001D16083F83900D6E700BF036870B50B
:102320001A6804461607DD6859694AD011F00101A0
:1023300053D0D60705D5E80503D5E06B40F0010082
:10234000E06356077BD5002900F08580E16B90079C
:1023500041F00201E16377D5E16B41F00401E163F3
:10236000110773D4E16B00292AD0910605D5AA067E
:1023700003D594F83A20222A7DD05D69E16B0E07DF
:1023800002D415F040057BD02021DA6822F4907247
:10239000DA605A6922F001025A6184F83A105A69E7
:1023A00055065FD55A69616B22F040025A610029D7
:1023B00058D03C4B08464B63FFF7ACF9002855D189
:1023C00070BD96060CD5A9060AD590F83A30222B96
:1023D000F6D1BDE87040FFF721BF15F4907FA8D17A
:1023E00010060ED45606EBD56D06E9D52021DA6825
:1023F000204622F04002DA6084F8391000F032FA08
:1024000070BD2906EED594F83920212AD8D1A268CA
:10241000B2F5805F226A38D0511C216212785A606E
:10242000E28C013A92B2E284002AC9D1DA6822F041
:102430008002DA60DA6842F04002DA6070BD960726
:102440000BD5002988D18DE711078BD5E16B41F0C1
:102450000801E16386E7900784D4100782D500293C
:1024600080D0F3E72046FFF725FF70BD606BBDE825
:102470007040436B18472046FFF7D0FE23687CE787
:102480002046FFF717FFE56370BD11882069C1F38F
:102490000801596010B902322262C1E7013222629A
:1024A000BEE700BFA9240008002208B5436ADA8508
:1024B0001846DA84FFF7FEFE08BD00BF2DE9F04F95
:1024C0000D68C5F30F2595FAA5F4B4FA84F435FA2E
:1024D00004F373D04FF0010B4FF00F0E4FF0011CBF
:1024E00040F201190BFA04F32B4263D0072C85BF8D
:1024F000A4F108030CFA03F309FA04F343F0806330
:102500001E0E93FAA3FABAFA8AFA93FAA3F8B8FA63
:1025100088F882594F684FEA8A0A0EFA0AFA4FEA97
:10252000880807FA08F822EA0A0242EA08028251F9
:10253000D0F80C801A0A92FAA2FABAFA8AFA28EAB1
:1025400002080F694A6807FA0AFA22F0080248EA04
:102550000A08012AC0F80C802CD193FAA3FABAFA1F
:102560008AFA93FAA3F80327B8FA88F84FEA8A0A96
:10257000825907FA0AFA8F684FEA880822EA0A02A3
:1025800007FA08F842EA0802825193FAA3F8B8FA67
:1025900088F893FAA3F30427B3FA83F34FEA880881
:1025A00007FA08F8CF689B0022EA080207FA03F34B
:1025B0001A438251013435FA04F393D10120BDE866
:1025C000F08F00BF1F4A0368904225D0B0F1804FC2
:1025D00030B413D0A2F5943290420FD002F580624D
:1025E00090420BD08C680A880360C462826243699F
:1025F00030BC43F001034361012070474A6823F077
:102600007003CD6813438C680A8823F440732B430E
:102610000360C4628262EAE74A6823F070031343EE
:10262000CA6823F44073134303608A680B88C2624C
:1026300083620B7C0363436943F001034361012020
:10264000704700BF002C01401029F0B403466ED043
:1026500048D9B1F5807F24D0B1F5805F64D1006A9C
:10266000156920F480501862196A634F5E6821F47E
:102670000051DC6941EA053121F4805124F4E6443B
:10268000BB4292E8210041EA053144EA002400F00F
:102690008480D26801205E60DC611A64F0BC19623B
:1026A0007047006A156920F480701862196A524FE9
:1026B0005E6821F40071DC6941EA052121F4807132
:1026C00024F07304BB4292E8210041EA052144EA68
:1026D000000468D0D26801205E60DC61DA63F0BC7F
:1026E0001962704701291FD1006A156920F00100A5
:1026F0001862196A404F5E6821F002019C69294303
:1027000021F0010124F07304BB4292E8210041EA68
:10271000050144EA00045BD0D26801205E609C6140
:102720005A63F0BC196270470020F0BC7047006A21
:10273000156920F010001862196A2F4F5E6821F0A9
:1027400020019C6941EA051121F0100124F4E644BE
:10275000BB4292E8210041EA051144EA002407D077
:10276000D26801205E609C619A63F0BC1962704778
:102770005569906921F0800126F4806641EA85114F
:1027800046EA80069568D06921F0400126F400668B
:1027900041EA851146EAC006E2E7906926F48046E0
:1027A00046EA801675E75569906921F4006126F4C0
:1027B000805641EA852146EA00169568D06921F4E1
:1027C000806126F4005641EA852146EA401681E7F9
:1027D0005569906921F0080126F4807641EA850167
:1027E00006439568D06921F0040126F4007641EA99
:1027F000850146EA40068FE7002C014010B40B7BB0
:102800008C684A68234323F4806313430A6823F4E3
:1028100000631343CA8923F4805313430A6923F4E2
:10282000005313434A6923F440431343436410BCE9
:10283000012070470021052210B4054C054BA4FB74
:10284000004080090138586010BC99601A607047D8
:10285000D34D621010E000E0014B1860704700BFDC
:10286000B0000020054B0168D3F808281268914297
:1028700004BF012283F80028704700BF44070020EE
:1028800000220120064B074983F80008C3F8081806
:10289000A3F80228A3F80428A3F80628704700BF6D
:1028A0004407002090100020F0B58BB001AB03AAC4
:1028B00000215748FEF76CFC044600F075F9002C27
:1028C00052D1544A039B11888B424FD05288934275
:1028D00048D1002500210024294300259DF804004B
:1028E0000B022043002143EA10631D432B02002505
:1028F0009DF805400202144343EA14639DF8060064
:102900002202194310430B02002143EA10631D43C6
:102910002B0200259DF807400202144343EA14638A
:102920009DF808002202194310430B02002143EADC
:1029300010631D432B0200259DF809400202144339
:1029400043EA14639DF80A002202194310439DF8DC
:102950000B400B0243EA1063020222432B432E4832
:1029600000F096FD00F03AF90BB0F0BD00209DF8A4
:10297000046030439DF805600202324392B2002A9F
:1029800025D0012AEED1254B9B685B04EAD50020B7
:1029900000214FF080474FF400461F4B204A214D45
:1029A0005463C3E9040194639C607C62C3E906013B
:1029B000C3E90801C3E90A01C3E90C01C3E90E0137
:1029C000C3E91001C3E912011C712E61CAE74FF07F
:1029D00000470020002101264FF08045114B104C8C
:1029E0001F610D4B62631E71A2639A60C3E904010B
:1029F000C3E90601C3E90801C3E90A01C3E90C01FF
:102A0000C3E90E01C3E91001C3E912016A62A9E733
:102A1000E00F0020800F002008000020001001407F
:102A2000002C0140000C014030B400203025044C43
:102A30000449054B054A256008701A6030BC704790
:102A40007C0F0020500F0020E00F002000640040A9
:102A5000F8B51C4E347804B1F8BD01274FF440326C
:102A60004FF400131849194D0968284669602A6116
:102A70006B61AC60EC602C766C76AC762C776C7706
:102A8000EF76FEF759FA124B284619463770DF6188
:102A90001C609C609C615C611C615C621F62FEF753
:102AA000CDFA2846FEF746FB48B902210748FEF753
:102AB000F3FB0028D0D0BDE8F84000F0C5BB00F023
:102AC000C3FBF2E7500F00207C0F0020E00F002036
:102AD000540F0020184B1B78012B0BD0082809D865
:102AE000DFE800F0090E12161A1E22260500042245
:102AF000124B1A6070474FF4E172104B1A60704726
:102B0000E1220E4B1A6070475A220C4B1A60704734
:102B10002D220A4B1A6070472422084B1A60704716
:102B20001222064B1A6070470922044B1A60704744
:102B30000622024B1A607047500F00207C0F0020C5
:102B400008B550220249034801F0C2FD08BD00BF8C
:102B500000FC0008800F002070B586B0FEF7ACFFC7
:102B60000022012306A90E4C41F8142D02A802925E
:102B7000039305930494FFF719F80A4D05F15006E5
:102B800035F8022B214600230120FEF7A5FEB542B1
:102B900004F10204F4D1FEF7A3FF06B070BD00BF3C
:102BA00000FC0008800F002010B5094C236803B119
:102BB00010BDFEF7A9F9074B1B68C01A0A28F7D900
:102BC0004FF40052044B1A61FEF79EF9206010BDCD
:102BD000D00F0020D40F00200010014010B51E4C73
:102BE00023683BBB1D4C236873B9FEF78DF91C4B62
:102BF0001B68C01A642806D901221A4B1A61FEF715
:102C000083F9206010BD10BDFEF77EF940F6543206
:102C10002368C01A90420AD94FF480310023114A28
:102C200011612360FEF770F90D4A23681060002BD4
:102C3000DBD010BDFEF768F92368C01A0A28D1D985
:102C40004FF000510023084A11612360FEF75CF940
:102C5000064B1860C6E700BFD00F0020D80F002039
:102C6000DC0F0020000C014000100140D40F0020B8
:102C70002DE9F041571EB7F5806F01D3BDE8F08113
:102C80000C4605461646FEF73FF900F10A0803E038
:102C9000FEF73AF9804539D395F80038002BF7D084
:102CA000231D2A1D944238BF9D4236D3082E34D9A5
:102CB000A6F1040E4FEA9E0E0EF1010E022F4FEA0E
:102CC0008E0C28D921462A46002351F8040B0133E3
:102CD0009E4542F8040BF8D8664563460BD0E15C8C
:102CE0005A1C9642E95406DDA15C02339E42A95467
:102CF00001DDE25CEA540023B2B285F800382946CF
:102D0000D5F80808FFF7C8F90028B7D0012385F8DF
:102D10000038BDE8F0810023E1E7E219631E691E77
:102D200013F8010F934201F8010FF9D1E3E700BF57
:102D3000234A2448114608B5036823F0070343F0EB
:102D4000020303600368136843F4803313600B6865
:102D50009A03FCD54B681A4A23F47C1343F4E81316
:102D60004B600B6843F080730B6013689B01FCD5CC
:102D70005368134923F0F0035360536823F4E0636E
:102D800043F480635360536823F460535360536883
:102D900023F0030343F0020353604B6803F00C037A
:102DA000082BFAD10848FFF745FD084A0648136882
:102DB00043F004031360BDE80840FFF74DBD00BFBA
:102DC000001002400020024000A24A0410E000E08F
:102DD0002DE9F04F00240427A1B0AB4DFEF776F8A3
:102DE000FFF7A6FF189419941A941B941C94AB69CE
:102DF00048F2070E4FF4005A4FF001084FF0020955
:102E000043F01003AB61AB69A04E03F010030493D1
:102E1000049BAB69DFF89CB243F02003AB61AB6964
:102E20009B4A03F020030593059BAB6918A93B431C
:102E3000AB61AB6930463B400693069BAB6943F000
:102E40000803AB61AB6903F008030793079BC6F85F
:102E500014A0CBF814E01892CDF86480CDF86890F7
:102E6000FFF72CFB8B4B304618A919971893FFF7E7
:102E700025FB894B18A958461B941893CDF86480FC
:102E8000CDF86890FFF71AFB2146202218A8089475
:102E900009940A940B940C9401F025FC40F2CF2283
:102EA00012940D94139414941594169417940E94EC
:102EB0000F9410941194AB6906F5E05643F4006347
:102EC000AB61AB6908A903F4006302933046029B2F
:102ED0000A92FFF777FB4FF0600E33680DEB0E029E
:102EE00023F080033360B368414623F4804323F02A
:102EF0000703B3603046CDF860E019941A941B9430
:102F00001C941D941E941F94FFF79EFBB36918AA8E
:102F100023F00403B3613046102119941A94FFF78B
:102F200093FB7368B26923F070037360B36822F493
:102F3000806223F08003B261B3603046092612A993
:102F40001294139414948DF85440ADF8564017948D
:102F5000CDF858A0FFF752FCAB69504A3B43AB6138
:102F6000AB690DA93B4003934D481094039B0E960B
:102F70000D92CDF83C90CDF84480FFF79FFA6B6935
:102F8000224643EA08036B616B69214603EA0803A2
:102F90000D930E200D9BFEF7E5FA0E20FEF718FBB1
:102FA000224621460F20FEF7DDFA0F20FEF710FB28
:102FB0004FF4E1210C223B4B3B4E18469C60DC60F9
:102FC0001C619C61DC611E6059605A61FFF734F836
:102FD00018941994129413941494159416941A94A2
:102FE0001B941C94EB694FF0804640F2033243EA95
:102FF0000803EB61EB6918A903EA08030193019B3D
:10300000AB6927483B43AB61AB6919973B404FF62F
:10301000FF770893089B1892FFF750FAB268B369DC
:1030200022F0070242F00302B260326A1B0C22F067
:103030000A023262326A1B0443F4807343EA0803D3
:1030400022F0A002B361326212A93046ADF84840C6
:10305000139415941497FFF7B5FA3368134A23F0C5
:10306000800333607368472723F070037360B3688D
:103070000F4823F08003B36018941A9419941B949A
:103080001C94EB69012617E000100240001001407B
:10309000200020044000400487078004030003044C
:1030A00000080140901000200038014000ED00E0D1
:1030B00000E100E0000C014043EA0903EB61EB6929
:1030C0004FF0005503EA09031293129BD268C2F332
:1030D0000222C2F10703042B28BF0423111D062975
:1030E00088BFD41E40F2E73206FA03F3013B3340B7
:1030F000A3401B014A4CDBB280F81D3318A90560C0
:103100002046ADF860701A92FFF75CFA2368454AD2
:1031100023F080032360A368434923F4804323F012
:103120000703A3606368642023F070036360A368EF
:103130003E4F23F08003A360536943F04003536183
:10314000536903F040031893189B0B6843F0020384
:103150000B60FDF7DFFE002307F58061D7F8080854
:103160004FF4806287F80068A7F80238FEF7D0FFB6
:1031700008B100BFFDE7FFF757FC0620FFF7AAFCE8
:103180002B4929223846FFF773FD07264FF40053D9
:10319000DFF8AC90DFF8AC806420C9F81060C8F8A4
:1031A0001030FDF7B7FE4FF4E0234FF08042C9F82E
:1031B0001030C8F81050136843F001031360FFF794
:1031C000BFFC1C4800F08CF9E168002241F00101CD
:1031D000E1602168002341F001012160154800F001
:1031E00057F96420FDF796FE134B1A6A42F011025C
:1031F0001A621A6842F001021A605A6C42F40042E4
:103200005A64FFF725FC324638460C49FFF730FD7B
:1032100000F062FB00F090FCFFF7E0FCFAE700BF73
:10322000000400400010024010E000E044070020CD
:10323000E09C000808000020002C01400C9D0008C4
:10324000000C014000100140704700BF2DE9F04F15
:10325000884B83B09B6813F480432ED14FF0004617
:1032600001244FF08041844A844D2E61536393635F
:1032700004714B624FF000470022002300214FF001
:1032800080467E4C7C4D27617D4F6963A963276131
:1032900071628160C0E90423C0E90623C0E9082304
:1032A000C0E90A23C0E90C23C0E90E23C0E91023BA
:1032B000C0E9122303B0BDE8F08F0279002AD9D10A
:1032C000D0E906674FF0804382466C496D4808613B
:1032D000586ACAE9086700B2CAF808005A62FDF7DE
:1032E0009BF8DAE91C23FDF7FDF804460D46DAE900
:1032F0000E0122462B46CAE90445FCF73FFF8046F3
:10330000894632463B46CAE90689FCF737FFDAE9C7
:103310001623FDF7E7F8DAE9182306460F4640467C
:10332000CAE90A674946FDF7DDF802460B46304612
:103330003946CAE90C23FCF723FFDAE91023FCF72E
:103340001FFF80468946DAF89070DAF894603A46B2
:103350003346CAE9108983460191FDF753FB0028E3
:1033600055D03A463346CAE91023DAE920233846D5
:103370003146FDF7B7F8DAE91E2306460F46204628
:103380002946FDF7AFF802460B4630463946FCF7B2
:10339000F7FE80468946DAF89860DAF89C70324683
:1033A0003B46CAE912890C460546FDF72BFB00286F
:1033B0003AD032463B4635463C46CAE91223002203
:1033C000314B28462146FDF78DF83B463246FDF746
:1033D000B3F9FDF737FB00F57A73B3F5FA6F0FD841
:1033E000002832DD0021BAF80220284B00FB02F051
:1033F00083FB0023204AC017C0EBA31050639163E6
:103400004FF400321D4B1A6103B0BDE8F08F06F196
:1034100000463A46584601993346FDF7D5FA00284A
:103420009FD15F46019EA0E707F10048324628463B
:1034300021464346FDF7C8FA0028C0D0324643462D
:1034400044463546CAE91223B9E703D10A4B58630B
:103450009863D5E70021BAF80230404203FB00F040
:103460000A4AC31782FB0020034AC3EBA010516332
:103470009063C5E700100140002C0140000C0140A2
:10348000040002000200040000408F40D34D62108F
:103490002DE9F041044619461046D4E91423FDF7FE
:1034A00021F8D4F88880D4F88C5042462B46064642
:1034B0000F46FDF7A7FA424660B905F100452B46D5
:1034C00030463946FDF780FA18B9C4E90E67BDE801
:1034D000F08142462B46C4E90E23BDE8F08100BFCF
:1034E0002DE9F8430646224F0022D7E90201D7E929
:1034F0000445D7E91289C6E91601D7E90601C6E9EC
:103500001845D7E90845C6E91E01D7E90A01C6E909
:103510002045D7E90C45C6E91C01D7E90E01C6E9EB
:103520001445D7E91045C6E922010023C6E9244520
:1035300040464946FDF748FAB8B97088C6E9288977
:103540000130FCF769FF42464B46FCF7CBFF0446CF
:1035500030880D460130FCF75FFF02460B462046DF
:103560002946FDF7E9F8C6E92601BDE8F88300BF62
:10357000800F0020F0B4D0E91623D0E91845D0E937
:1035800020671049C1E90223D0E91E23C1E904459F
:10359000D0E91C45C1E90623D0E91423C1E9086735
:1035A000D0E92267C1E90A45D0E92445C1E90C23E5
:1035B000D0E92823C1E90E67C1E91045F0BCC1E993
:1035C00012237047800F0020254B00B59A6983B005
:1035D00042F001029A619A69032002F0010200920E
:1035E000009ADA6942F08052DA61DB6903F08053B5
:1035F0000193019BFDF7A4FF00226FF00B00114621
:10360000FDF7B0FF00226FF00A001146FDF7AAFF98
:1036100000226FF009001146FDF7A4FF00226FF0B1
:1036200004001146FDF79EFF00226FF003001146D3
:10363000FDF798FF00226FF001001146FDF792FFA1
:1036400000224FF0FF301146FDF78CFF054A53680A
:1036500023F0E06343F00073536003B05DF804FBB4
:10366000001002400000014030B500240268214BE8
:1036700087B09A42029403940494059401D007B051
:1036800030BD4FF4807503F5D633DA6902A942F0F4
:103690000072DA61DA69184802F000720092009A4A
:1036A0009A6942F008029A619B69029503F0080347
:1036B0000193019B4FF40075FEF7DCFA022203230D
:1036C00002A90D48039205930295FEF7D3FA0B4821
:1036D00022464368214623F4C04343F0E06343F4A9
:1036E000804343601420FDF73DFF1420FDF770FF79
:1036F00007B030BD00640040000C014000000140F4
:10370000354B02689A4200D07047F0B5044640201D
:103710004FF0020E03260025802703F558439A69CF
:1037200087B042F480429A619B6902A903F4804306
:10373000019302902948019BCDF80CE00596FEF715
:1037400099FA02A92548029703950495FEF792FA83
:103750004FF0200E4FF40051214A224E5368F7607B
:1037600043F0E06343F004031F4F5360304675603D
:10377000B560356175613760C6F818E0F161FDF735
:1037800051FF10BB1020002380274FF400714FF42D
:103790008052164D66637462154E686028462E602E
:1037A000EF602961EA61AB606B61AB61FDF73AFFE5
:1037B00070B900222563114625206C62FDF7D2FE08
:1037C0002520FDF705FF07B0F0BDFFF73DFDD9E768
:1037D000FFF73AFDEDE700BF00380140000C014063
:1037E0000000014008100020580002404C1000204A
:1037F00044000240704700BFFEE700BFFEE700BF85
:10380000FEE700BFFEE700BF704700BF704700BF84
:10381000704700BF08B5FDF76BFBBDE80840FDF73A
:10382000FDBE00BF0148FDF761BD00BFE00F0020F5
:10383000034B1A69D20744BF6FF001021A61704747
:10384000002C0140054B1A69D20700D470476FF075
:10385000010203481A61FFF7F9BC00BF00040040F1
:10386000080000200148FDF7A1BF00BF4C10002058
:103870000148FDF79BBF00BF081000200148FEF77C
:103880004DBD00BF9010002030B44FF41F054FF025
:1038900000640E4B0E4A19680E4841F00101196090
:1038A00059680A405A601A6822F0847222F4803201
:1038B0001A601A6822F480221A605A6822F4FE0202
:1038C0005A609D60846030BC704700BF00100240A9
:1038D0000000FFF800ED00E070B5802200211348E1
:1038E00000F001FF0022124B124C1A60FDF70CFB96
:1038F00000F10A0503E0FDF707FB854211D394F8B8
:103900000038002BF7D03E2620250023022209494B
:10391000D4F808082670657084F80038FEF7BCFB00
:1039200018B1012384F8003870BD70BDD01000209C
:103930005011002044070020F0B585B0CDE90023E8
:10394000029102463A493B4800F0D6FE061E28DBAB
:10395000731EB3F5806F01D305B0F0BDFDF7D4FA47
:10396000354C00F10A0503E0FDF7CEFA854213D38A
:1039700094F80038002BF7D032462E492E4800F03C
:10398000A7FE0023B2B22C49D4F8080884F8003806
:10399000FEF782FB0028DFD0012384F8003805B051
:1039A000F0BDFDF7B1FA244C00F10A0503E0FDF784
:1039B000ABFA8542F0D394F80038002BF7D01F4AB9
:1039C0004FF00103A24288BF0023DBB24BB91C4871
:1039D0001C494FF00102884288BF1A4612F0FF0FBF
:1039E0000CD06E2574206621174A184B257284E886
:1039F0000C006072A17200230B22C4E772234FF007
:103A0000650C4FF0400E7327702669256E207421D7
:103A1000662284F800C06370A370A37184F803E089
:103A200027716671E57120726172A272E3E700BFCF
:103A3000249F00085411002044070020409F0008E4
:103A4000480700203C9F00086572724073707269DD
:103A500070B582B0CDE9002317490246174800F03F
:103A60004BFE431EB3F5806F01D302B070BD064616
:103A7000FDF74AFA124C00F10A0503E0FDF744FA9B
:103A8000854213D394F80038002BF7D032460B4907
:103A90000B4800F01DFE0023B2B20949D4F8080813
:103AA00084F80038FEF7F8FA0028DED0012384F805
:103AB000003802B070BD00BF489F000854110020BC
:103AC0004407002070B584B0CDE90023029102467E
:103AD0001649174800F010FE431EB3F5806F01D35E
:103AE00004B070BD0646FDF70FFA124C00F10A054E
:103AF00003E0FDF709FA854213D394F80038002B50
:103B0000F7D032460A490B4800F0E2FD0023B2B27A
:103B10000849D4F8080884F80038FEF7BDFA0028F0
:103B2000DED0012384F8003804B070BD649F000823
:103B300054110020440700202DE9F047B24C88B012
:103B4000D4F80828B4F80238526B1268526852420E
:103B5000C2F30902934236D0E21892F800240133EE
:103B6000A2F16101C3F309031929A4F802382DD881
:103B7000203AD6B2A54DA64A2B68591C2960D654C6
:103B8000FDF7C2F900F10A0703E0FDF7BDF987422E
:103B90000ED394F80038002BF7D0002301229A4965
:103BA000D4F80808267084F80038FEF775FA10B1CA
:103BB000012384F800382B687F2B00F2AE800D2E95
:103BC00016D00A2E14D008B0BDE8F087A2F1410348
:103BD000192B0BD9A2F12003DBB2192B00F2908034
:103BE0008C4921FA03F3DB0740F18D801646C1E7CB
:103BF000FDF78AF900F10A0603E0FDF785F9864230
:103C000011D394F80038002BF7D00D270A26002393
:103C100002227D49D4F808082770667084F80038BD
:103C2000FEF73AFA10B1012384F800380026002785
:103C300008AB63E9046706AA7749754800F080FD80
:103C4000002840F3AF81754906A8FCF781FA0028E7
:103C500000F0BD80724906A8FCF77AFA002800F04F
:103C60008781704906A8FCF773FA002800F0B0813C
:103C70006D4906A8FCF76CFA002800F0CA816B4970
:103C800006A8FCF765FA002800F03581684906A807
:103C9000FCF75EFA002840F0D781DDE9048932465E
:103CA0003B4640464946FCF78FFE002840F00C8218
:103CB000604B614ACDE9008902926049C3E91689E7
:103CC0005F4A604800F018FD431EB3F5806F06465A
:103CD00080F08E80FDF718F900F10A0704E0FDF787
:103CE00013F98742C0F0038194F80038002BF6D016
:103CF00032465449444800F0EBFC0023B2B2EDE0F8
:103D0000082A00F015817F2A00F012810D2A3FF465
:103D10006DAF0A2A7FF457AF68E7FDF7F5F800F1B9
:103D20000A0703E0FDF7F0F887424CD394F8003817
:103D3000002BF7D04449454A4FF00103914288BF18
:103D40000023DBB24BB942494FF00102A14288BFC8
:103D50001A4612F0FF0F00F007823E4A3E4B3F4FDB
:103D60003F48226002F134623E4902F50F2263604F
:103D700003F53A0302F6EF7203F5E063A760E06033
:103D800007F16E47A0F1E16007F57E07A0F5A020DE
:103D9000216162613449354AA361354B07F5824799
:103DA000A0F24560E76120626162A262E3620023E3
:103DB00030221549D4F8080884F80038FEF76CF969
:103DC00000283FF4FCAE012384F80038F7E6DDE973
:103DD0000401FCF75FFE274E83B21A4626491948B4
:103DE000338000F089FC431EB3F5806F074661D332
:103DF00080220021064800F076FC00232B60FDF7AE
:103E000083F800F10A053DE044070020501100202E
:103E1000D01000200160FF03589D0008609D00083D
:103E2000849D00088C9D0008B09D0008B89D000886
:103E3000D89D000808000020E49D0008649F000849
:103E4000E09D00085411002048070020249D000830
:103E5000289D0008727820627566666572206F760C
:103E6000657272756E2E206D677468203D20313248
:103E7000372E0D0A800F0020689D0008FDF744F8DA
:103E8000854213D394F80038002BF7D03E26202526
:103E900000230222BA49D4F808082670657084F815
:103EA0000038FEF7F9F800283FF48DAE012384F8BE
:103EB000003888E6FDF728F800F10A0603E0FDF770
:103EC00023F8864213D394F80038002BF7D03A46F3
:103ED000AC49AB4800F0FCFB0023BAB2A849D4F8C7
:103EE000080884F80038FEF7D7F8002880D00123AE
:103EF00084F800387CE7DDE90401FCF7CBFDA2493A
:103F000082B2A04800F0F8FB431EB3F5806F06466E
:103F1000BFF46EAFFCF7F8FF00F10A0703E0FCF70F
:103F2000F3FF8742E3D394F80038002BF7D0DFE6A5
:103F3000964A1368002B40F0E380FCF7E5FF00F1A0
:103F40000A0503E0FCF7E0FF8542AFD394F80038A0
:103F5000002BF7D00725002301228949D4F808084F
:103F6000257084F80038FEF797F800289ED12AE6DD
:103F7000874B88491A88834800F0BEFB431EB3F57F
:103F8000806F0746BFF434AFFCF7BEFF00F10A06AE
:103F900003E0FCF7B9FF8642A9D394F80038002B60
:103FA000F7D094E7802200217B4800F09CFB00239F
:103FB0002B60FCF7A9FF00F10A0504E0FCF7A4FF61
:103FC0008542FFF473AF94F80038002BF6D05DE71C
:103FD000DDE90401FCF75EFD6D4E83B21A466F49C0
:103FE0006848738000F088FB431EB3F5806F074676
:103FF000BFF4FEAEFCF788FF00F10A0604E0FCF710
:1040000083FF8642FFF473AF94F80038002BF6D09C
:104010005DE75F4B61495A885A4800F06DFB431ECB
:10402000B3F5806F0746BFF4E3AEFCF76DFF00F118
:104030000A0604E0FCF768FF8642FFF458AF94F8E4
:104040000038002BF6D042E7554906A8FCF780F867
:10405000002800F0E080534906A8FCF779F8002812
:1040600040F0BA80DDE9048932463B464046494685
:10407000FCF7AAFC002840F0D6804B4E4246D6E919
:104080001A014B46FCF72EFA484BC6E91801484A7C
:104090000293CDE9008947493A4800F02DFB431EC1
:1040A000B3F5806F0646BFF4A3AEFCF72DFF00F119
:1040B0000A0704E0FCF728FF8742FFF418AF94F8E2
:1040C0000038002BF6D013E6CDE900893A4A3B4987
:1040D0002C4800F011FB431EB3F5806F0646BFF479
:1040E00087AEFCF711FF00F10A0704E0FCF70CFFB4
:1040F0008742FFF4FCAE94F80038002BF6D0F7E5C9
:10410000013B1360FCF700FF00F10A0504E0FCF737
:10411000FBFE8542FFF4CAAE94F80038002BF6D0BF
:10412000274A4FF00103A24288BF0023DBB253B9F4
:10413000244825494FF00102884288BF1A4612F0F0
:10414000FF0F00F0BF804422204B22712360002328
:1041500005220B49D4F8080884F80038FDF79CFFC5
:1041600000287FF4A3AE2EE5194B1A4A03F1300064
:1041700013F8011F984202F8011FF9D117E600BF9A
:104180004407002054110020C09D00085011002059
:10419000800F0020689D0008D0100020949D00082A
:1041A000F09D0008F89D000808000020049E00080B
:1041B000009E0008649F0008E09D0008489F0008DA
:1041C000209D0008480700201C9D000808201B5B5C
:1041D000239D000843070020954906A8FBF7B8FF78
:1041E000002861D0934906A8FBF7B2FF00283CD114
:1041F000DDE904670022002330463946FCF7E4FB82
:1042000068BB8D483246C0E91E673B468B498C48E7
:10421000FFF758FCECE5884B8A49D3E916238A4816
:10422000FFF78AFBE4E5CDE90089884A8849894897
:1042300000F062FA431EB3F5806F0646BFF4D8ADB6
:10424000FCF762FE00F10A0704E0FCF75DFE87421E
:10425000FFF44DAE94F80038002BF6D048E5324616
:104260003B467748FFF7F4FBC2E57B4906A8FBF71E
:104270006FFF002863D0794906A8FBF769FF002883
:1042800031D1DDE904670022002330463946FCF7CE
:104290009BFB10BB68483246C0E920673B4670492B
:1042A0007048FFF70FFCA3E56349D1E91A23D1E970
:1042B0001801FCF741FA02460B4664486A49FFF7C9
:1042C0003BFB95E5082520201B215B22442325701C
:1042D0006070A170E270237139E732463B46614855
:1042E000FFF7B6FB84E5614906A8FBF731FF00281C
:1042F00000F072815E4906A8FBF72AFF002800F053
:1043000052815C4906A8FBF723FF002843D05A4995
:1043100006A8FBF71DFF00BBDDE9046700220023B0
:1043200030463946FCF750FB88B943483246C0E96D
:1043300014673B4651495248FFF7C4FB58E53E4BD2
:104340003E49D3E91E233E48FFF7F6FA50E53246D0
:104350003B464B48FFF77CFB4AE54A4906A8FBF77A
:10436000F7FE002852D0484906A8FBF7F1FE68BBCB
:10437000DDE904670022002330463946FCF724FBC0
:10438000F0B92D483246C0E922673B463F494048D4
:10439000FFF798FB2CE52849D1E91A23D1E91C0144
:1043A000FCF7A0F802460B461FA1D1E90001FCF77B
:1043B000C3F902460B4637483749FFF7BDFA17E500
:1043C00032463B463248FFF743FB11E5334906A826
:1043D000FBF7BEFE002800F0A180314906A8FBF7DC
:1043E000B7FE002862D1DDE90467002200233046D1
:1043F0003946FCF7E9FA88B90F483246C0E9246724
:104400003B4628492848FFF75DFBF1E40A4B1B496E
:10441000D3E914231A48FFF78FFAE9E432463B4602
:104420002148FFF715FBE3E4182D4454FB21194004
:104430000C9E0008149E0008080000201C9E000826
:10444000289E0008E49D0008E09D0008009E0008EA
:10445000489F0008541100202C9E0008349E00083C
:104460003C9E0008449E0008049E0008489E0008E8
:10447000509E0008689E0008709E0008789E000804
:10448000849E0008889E0008909E0008989E000860
:10449000A09E0008649E0008589E0008AC9E00087C
:1044A000B49E0008BC9E0008C09E0008504906A8A3
:1044B000FBF74EFE00285BD04E4906A8FBF748FEEE
:1044C000002839D1DDE9046700220023304639464F
:1044D000FCF77AFA50BBDFF828A1BAF80200CAE963
:1044E00028670130FBF798FF32463B46FBF7FAFF9F
:1044F0008046BAF8000089460130FBF78DFF02467E
:104500000B4640464946FCF717F93246CAE92601F0
:104510003B4639493948FFF7D5FA69E4384B394900
:10452000D3E922233848FFF707FA61E432463B46D5
:104530003248FFF78DFA5BE4344906A8FBF708FE22
:1045400048B3334906A8FBF703FEC8B106A83149B2
:10455000FBF7FEFD00287FF44BACFEF7F1FA28488C
:10456000FEF7BEFF11222C492C48FEF781FB3FE4E9
:10457000234B2B49D3E924232A48FFF7DDF937E4FD
:104580001F48FEF7F7FFFEF7E7FA122226492348F5
:10459000FEF76EFB2CE41A4B1749D3E92823174882
:1045A000FFF7CAF924E4164EDDE90489D6E91A2397
:1045B00040464946FBF796FF02460B460AA1D1E961
:1045C0000001FCF7B9F84246C6E91C014B46174901
:1045D0001748FFF777FA0BE4094B1649D3E9202374
:1045E0001548FFF7A9F903E4182D4454FB2119409D
:1045F000C89E0008D09E0008D89E0008DC9E0008D7
:1046000008000020989E0008A09E0008E49E000874
:10461000EC9E0008089F0008109F00084407002037
:10462000BC9E0008C09E0008F49E0008589E00082A
:10463000649E00083C9E0008449E0008002103E0A0
:104640000B4B5B58435004310A480B4B42189A42BB
:10465000F6D30A4A02E0002342F8043B084B9A4290
:10466000F9D3FFF711F900F00FF8FEF7B1FB70472F
:10467000D8A20008000000202407002028070020FE
:1046800040120020FEE7000070B500250C4E0D4CD6
:10469000A41BA410A54209D105F014FB00250A4E65
:1046A0000A4CA41BA410A54205D170BD56F82530B4
:1046B00098470135EEE756F8253098470135F2E77F
:1046C000CCA20008CCA20008CCA20008D4A200080A
:1046D00010B5431E0A44914200D110BD11F8014BA0
:1046E00003F8014FF7E703460244934200D17047B5
:1046F00003F8011BF9E700000EB44FF4027100B596
:104700009CB0ADF814106FF00041049107914FF682
:10471000FF711DAB02900690084853F8042BADF8CA
:104720001610006802A9019300F036F80022029BDF
:104730001A701CB05DF804EB03B07047B4000020A1
:104740000EB44FF4017230B59CB01FAC54F8045B4A
:10475000ADF8142002900690FBF704FD0B4B03907C
:104760000B9300230F9314934FF6FF7307900848A1
:10477000ADF816302A46234602A90068019400F0DD
:10478000DBFF1CB0BDE8304003B070479547000820
:10479000B4000020002070472DE9F04FBFB08946DB
:1047A00015461F46824602F0C7FB03681846119360
:1047B000FBF7D8FCB9F80C300A901B0618D5D9F8CD
:1047C0001030ABB94021504602F0CCFBC9F80000D4
:1047D000C9F8100048B90C23CAF800304FF0FF3375
:1047E0000B930B983FB0BDE8F08F4023C9F814300D
:1047F00000232EAC219423932293099507930D93C4
:104800000E93159314930B9312931393099D2B46B8
:1048100013F8012B12B1252A40F08380099BEE1A70
:104820000DD084E84800239B33442393229B01331B
:10483000072B229377DC08340B9B33440B932B78A4
:10484000002B00F025870023691C1A464FF0FF3B20
:104850001D460A208DF867300C934E1C0978099686
:10486000069106992039582900F21484DFE811F0E6
:10487000A50012041204AA00120412041204120465
:1048800012041204AD0065001204B500B800120451
:10489000D500D800D800D800D800D800D800D8005B
:1048A000D800D800120412041204120412041204D4
:1048B00012041204120412040C0122011204220137
:1048C0001204120412041204EB00120412043C033A
:1048D00012041204120412041204A4031204120497
:1048E00085001204120412041204120412041204A9
:1048F000120412041204FE006B00220122012201A4
:10490000EE006B0012041204F10012041E033E03B9
:104910007203F800120483031204A60312041204A3
:10492000BE031D4673E721AA4946504604F05EFACD
:10493000002840F08E862EAC7EE701232B220999B9
:104940008BE70F46FBE70BB18DF86720AE0640F111
:10495000A180073727F0070707F108030893D7E975
:104960000067002E77F1000305DA2D23764267EB0E
:1049700047078DF867300123C7E20BB18DF8672038
:10498000A04B1593AB0640F13683073727F0070796
:1049900007F108030893D7E90067E8070BD556EA43
:1049A000070308D030238DF868309DF8183045F0A3
:1049B00002058DF869300223A4E2002ABFD1012349
:1049C0002022BCE745F00105B9E73E68391D002EFD
:1049D0000C96B6DA0F4676420C9645F00405AEE723
:1049E00009994E1C09782A29069110D04FF0000B26
:1049F00009960699303909293FF633AF00FB0B1BA6
:104A000009990E4616F8011B06910996F1E73968D7
:104A1000099641EAE17B043791E745F080058EE78E
:104A200000210C9106990C9E303900FB06110C9167
:104A300009990E4616F8011B069106990996303918
:104A40000929EFD90DE745F0080578E745F040055D
:104A500075E7099909786C2905D1099901310991FE
:104A600045F020056BE745F0100568E700263B1D83
:104A700008933B688DF867608DF890304FF0010B1C
:104A800037460DF190081CE10BB18DF8672045F019
:104A900010055BE715F0100F07F1040303D03E6823
:104AA0000893F7175DE73E6815F0400F089318BFAD
:104AB00036B2F6E70BB18DF86720073727F0070706
:104AC00007F1080308933B684FF0FF320D937B68B2
:104AD0000D9F0E930E9B384623F0004631464A4BFD
:104AE000FBF79AFF002840F0DC854FF0FF32464B81
:104AF00038463146FBF772FF002840F0D285129A03
:104B0000139B0D980E99FBF75FFF10B12D238DF8C5
:104B100067303E4B3E4A06994FF0030B4729CCBF06
:104B200090469846002625F080053746C9E0BBF13F
:104B3000FF3F26D0069B23F02003472B04D1BBF177
:104B4000000F08BF4FF0010B45F4807317930E9BC5
:104B50001F1E0D9BA8BF10970F93BDBF3B4603F1CF
:104B6000004310930023B8BF2D231693069B23F018
:104B70002007462F08D0452F42D10BF10106022312
:104B800004E04FF0060BDFE75E4603231FAA049202
:104B90001CAA03921BAA02928DE848000F9A109B50
:104BA000504601F0C5FB472F804602D1E80740F18F
:104BB000858508EB0603462F079311D198F800303E
:104BC000302B09D1129A139B0F981099FBF7F2FE24
:104BD00010B9C6F101061B96079A1B9B1A4407924F
:104BE000129A139B0F981099FBF7E4FE90B93022AC
:104BF0001F9B079999420FD9591C1F911A70F7E70B
:104C00005E46BCE7889F0008FFFFEF7F789F0008A3
:104C10007C9F0008079B1F931F9B472FA3EB080354
:104C2000079340F000811B9BD91C02DB9B4580F25F
:104C30002681069B023B06931B9A9DF81810531E73
:104C4000002BA8BF2B221B93BCBFC2F101032D2256
:104C5000092B8DF874108DF8752040F300810A2619
:104C60000DF1830293FBF6F006FB1033092803F1E4
:104C7000300302F8013C02F1FF31034600F3E88003
:104C8000303301F8013C023A0DF176030DF1830057
:104C900082421946C0F0DE80079A1DABCB1A012A6A
:104CA000149303EB020B02DC15F0010702D000277E
:104CB0000A9B9B44169B13B12D238DF86730002669
:104CC000179D5E453346B8BF5B460F939DF867302E
:104CD00013B10F9B01330F9315F0020316931EBF00
:104CE0000F9B02330F9315F08403179318D10C9B7D
:104CF0000F9A9B1A002B109312DD109B102BAB4BBD
:104D0000236000F3D981109B109A6360239B1344A6
:104D10002393229B0133072B229300F3E68108346F
:104D20009DF8673073B10DF1670323600123636061
:104D3000239B01332393229B0133072B229300F300
:104D4000DE810834169B6BB11AAB236002236360CB
:104D5000239B02332393229B0133072B229300F3DF
:104D6000D8810834179B802B18D10C9B0F9A9B1A63
:104D7000002B109312DD109B102B8D4B236000F342
:104D8000D281109B109A6360239B13442393229B30
:104D90000133072B229300F3DF810834A6EB0B06C7
:104DA000002E0FDD824B102E236000F3DF81229B4B
:104DB000239801336660072B06442396229300F361
:104DC000EC810834EB0500F1F281239B84E80009B3
:104DD0005B442393229B0133072B229340F31984D6
:104DE00021AA4946504604F001F8002840F03184D9
:104DF0002EAC6B0700F110840B9B0C9A0F998A4222
:104E0000ACBF9B185B180B93239B3BB121AA49466F
:104E1000504603F0EBFF002840F01B840023089F5E
:104E200022932EACF2E4069B652B7FF705AF069B21
:104E3000662B24D11B9B002B19DDBBF1000F01D188
:104E4000EA0702D50A9A13445B441B9F9B4631E74D
:104E50000A4607E712F8011B03F8011B18E7302286
:104E600013448DF876208DF877301EA914E7BBF136
:104E7000000F01D1EB0715D50A9B0133E4E71B9A1C
:104E8000079B9A4206DBEF070ED50A9B1344672265
:104E90000692DAE7079B0A99002A0B44F7DCC2F175
:104EA0000102F3E70123D0E71346F0E70BB18DF8D9
:104EB000672015F0200F07F1040308D00B993A681A
:104EC000CE1708463146C2E900011F469EE4EE06B1
:104ED00003D53A680B991160F7E76806F9D53A6887
:104EE000BDF82C101180F0E745F0100515F02003F7
:104EF00022D0073727F0070707F108030893D7E9FF
:104F00000067002300228DF86720BBF1FF3F00F00F
:104F1000DB8325F080020F9256EA070240F0D98326
:104F2000BBF1000F00F0AA80012B76D0022B00F01D
:104F3000918000260027D2E33A1D15F01001089257
:104F400002D03E680027DDE715F04003F9D03E8827
:104F50000027D6E73B1D0893302378228DF8683070
:104F6000144B3E681593002745F002058DF8692023
:104F700002230692C6E700263B1DBBF1FF3F0893C4
:104F8000D7F800808DF867600AD05A46314640460F
:104F900002F032FA002800F08D80A0EB080BC4E587
:104FA0004046FBF7DFF88346BFE500BFAC9F000833
:104FB000BC9F0008999F000845F01005A90609D577
:104FC000073727F0070707F108030893D7E90067B9
:104FD000012397E73B1D15F0100F089301D03E68A1
:104FE00002E06A06FBD53E880027F1E70BB18DF899
:104FF0006720A34BC5E43B1D15F0100F089301D0AB
:105000003E6802E06E06FBD53E880027C5E44346B5
:1050100066E3002F08BF0A2E05D230360DF1F808DE
:1050200008F8416D77E30DF1B808304639460A2299
:105030000023FBF79FFD303208F8012D0023304696
:1050400039460A22FBF796FD06460F4656EA070345
:10505000EBD160E3002600270DF1B808159A06F0A1
:105060000F03D35C3A0908F8013D330943EA07739B
:105070001E46174656EA0703F0D14CE33BB9EA0750
:1050800005D530230DF1F80808F8413D43E30DF153
:10509000B80840E30BB18DF86720069B002B00F0A9
:1050A000F78200269DF818308DF867608DF89030F3
:1050B0000897E3E4064638E510236360239B10332A
:1050C0002393229B0133072B229304DC0834109B8B
:1050D000103B109311E621AA4946504603F086FE84
:1050E000002840F0B6822EACF1E721AA494650468E
:1050F00003F07CFE002840F0AC822EAC10E621AA22
:105100004946504603F072FE002840F0A2822EACC1
:1051100018E621AA4946504603F068FE002840F0F0
:1051200098822EAC1EE610236360239B10332393DA
:10513000229B0133072B229304DC0834109B103B85
:10514000109318E621AA4946504603F04FFE002866
:1051500040F07F822EACF1E721AA4946504603F089
:1051600045FE002840F075822EAC17E610236360E0
:10517000239B10332393229B0133072B229302DCC2
:105180000834103E0EE621AA4946504603F02EFE92
:10519000002840F05E822EACF3E721AA4946504633
:1051A00003F024FE002840F054822EAC0AE6069B51
:1051B000652B40F3A981129A139B0D980E99FBF76A
:1051C000F9FB002862D02F4B236001236360239BEF
:1051D00001332393229B0133072B229325DC0834D0
:1051E0001B9B079A934202DBEE077FF502AE119BF1
:1051F0000A9A23600A9B6360239B13442393229B98
:105200000133072B22931ADC0834079B5E1E002E05
:105210007FF7EFAD4FF010081B4F102E276018DC02
:105220006660239B1E442396D4E521AA4946504636
:1052300003F0DCFD002840F00C822EACD0E721AA60
:105240004946504603F0D2FD002840F002822EACC1
:10525000DBE7239BC4F8048010332393229B0133A4
:10526000072B229302DC0834103ED6E721AA4946D8
:10527000504603F0BBFD002840F0EB812EACF3E775
:10528000999F0008AA9F0008BC9F00081B9B002B49
:105290007ADC9B4B236001236360239B01332393C0
:1052A000229B0133072B229344DC08341B9B23B938
:1052B000079B13B9E8077FF59CAD119B0A9A236001
:1052C0000A9B6360239B13442393229B0133072B88
:1052D000229339DC04F108031B9E002E19DA1024F6
:1052E000884F7642102E1F6038DC239A5E60164489
:1052F000229A23960132072A03F10803229208DD3D
:1053000021AA4946504603F071FD002840F0A181D2
:105310002EAB079A07995A60239AC3F800800A4473
:105320002392229A0132072A22923FF759AD03F1C4
:1053300008045EE521AA4946504603F057FD0028BF
:1053400040F087812EACB1E721AA4946504603F0D0
:105350004DFD002840F07D812EABBDE7239A5C60B7
:1053600010322392229A0132072A229202DC083359
:10537000103EB7E721AA4946504603F037FD002802
:1053800040F067812EABF3E7079BBB42A8BF3B46CB
:10539000002B1E460BDD6360239BC4F80080334462
:1053A0002393229B0133072B22935FDC0834002ECA
:1053B000B4BF3E46BE1B002E0FDDDFF848B1102EF5
:1053C000C4F800B05CDC239B66601E44229B2396DD
:1053D0000133072B22936ADC08341B9B079A934204
:1053E00001DBE9070DD5119B0A9A23600A9B6360D4
:1053F000239B13442393229B0133072B229360DCCE
:105400000834079B079ADE1B1B9BD31A9E42A8BF3A
:105410001E46002E0BDD239B474433442393229BDF
:1054200027600133072B6660229354DC08341B9BF2
:10543000079A002EA2EB0303B4BF1E469E1B002E4C
:105440007FF7D7AC4FF010082E4F102E27607FF754
:10545000E7AE239BC4F8048010332393229B0133CF
:10546000072B229341DC0834103EEEE721AA49467F
:10547000504603F0BBFC002840F0EB802EAC96E7D2
:1054800010236360239B10332393229B0133072B4C
:10549000229302DC0834103E91E721AA4946504687
:1054A00003F0A4FC002840F0D4802EACF3E721AA3E
:1054B0004946504603F09AFC002840F0CA802EACC2
:1054C0008BE721AA4946504603F090FC002840F0A3
:1054D000C0802EAC95E721AA4946504603F086FCD1
:1054E000002840F0B6802EACA1E721AA49465046DC
:1054F00003F07CFC002840F0AC802EACB4E700BF89
:10550000AA9F0008BC9F0008079B012B01DCEA074B
:1055100076D501236360239BC4F800800133239375
:10552000229B0133072B229336DC0834119B0A9A05
:1055300023600A9B6360239B13442393229B0133C4
:10554000072B229331DC0834139B129A0D980E9985
:10555000FBF730FA079B5E1E00282FD108F10103EC
:1055600084E84800239B079A013B13442393229B22
:105570000133072B22934ADD21AA4946504603F006
:1055800035FC002865D12EAC1DAB2360149B149A0A
:105590006360239B13441CE421AA4946504603F050
:1055A00025FC002855D12EACC0E721AA494650461B
:1055B00003F01CFC00284CD12EACC5E7002EE3DD27
:1055C0004FF01008584F102E276004DC239B6660B4
:1055D0001E442396CBE7239BC4F804801033239307
:1055E000229B0133072B229302DC0834103EEAE7AA
:1055F00021AA4946504603F0F9FB50BB2EACF5E713
:1056000001236360239BC4F800800133AEE70834B4
:10561000BAE70834FFF7EDBB0C9B0F9A9D1A002DDB
:105620007FF7EAAB1026414B102D23601BDC239B38
:1056300065601D44229B23950133072B22937FF73E
:10564000DBAB21AA4946504603F0D0FB00283FF4CB
:10565000D3ABB9F80C3013F0400F0B9B18BF4FF0D1
:10566000FF33FFF7BDB8239B666010332393229B63
:105670000133072B229302DC0834103DD3E721AA23
:105680004946504603F0B2FB0028E2D12EACF4E7C5
:10569000239B002BDDD021AA4946504603F0A6FBF0
:1056A000D7E70D9A0E9B0D980E99FBF7B5F90028D8
:1056B0003FF43DAA1E4B1F4AFFF72DBA1F9BA3EBD9
:1056C00008030793FFF7AFBA56EA07020F953FF4B6
:1056D0002BAC012B3FF49DAC022B3FF4BDAC2EABA9
:1056E000F10841EA4771F80806F0070207460E463E
:1056F000303256EA070103F1FF3803F8012C7FF43A
:1057000086AC0F99C90706D5302A04D0302208F894
:10571000012CA3F102082EAB5E460F9DA3EB080BF4
:105720000027FFF7CEBA00BFBC9F0008AC9F00085F
:10573000809F0008849F00082DE9F04F1F46B1F9B3
:105740000C300D469904ADF52B7D804606D443F40C
:105750000053AB816B6E23F400536B6600239B46B2
:105760000692059303930493069A12F8013B06925E
:105770000F93002B00F0C88001F0CEFB0F9B184464
:1057800090F8019019F0080919D06B68002B0FDD13
:1057900001F0C2FB2B681A78104442781207E3D557
:1057A0006A680133013A0BF1010B6A602B60ECE788
:1057B0002946404603F0D1FB0028E9D0D4E7252B49
:1057C00040F098804C464E460A22069B069993F874
:1057D00000A00131BAF1630F069100F0DB8056D8CA
:1057E000BAF1440F14D01ED8BAF12A0F00F0AC80E1
:1057F00011D8BAF1000F00F00785BAF1250F79D062
:1058000001F08AFB5044437803F00303012B48D195
:1058100044F0010445E0AAF13003092BF0D802FB63
:1058200006A6303E92E0BAF14C0F00F0968022D8E6
:10583000BAF1450F02D0BAF1470FE1D14FF0040A97
:105840006B68002B40F3C780630608D401F064FB4B
:105850002B681A7810444278100700F1C4800AF1CE
:10586000FF3ABAF1030F00F2D080DFE81AF05001DE
:10587000A3015A022303BAF1580F7BD0BAF15B0F90
:105880007ED0BAF14F0FBBD144F0010422E0BAF14F
:105890006C0F5DD014D8BAF1670F04D8BAF1650F58
:1058A000CCD2AC4B63E0BAF1680F5CD0BAF1690FAF
:1058B000A6D1A84B0593002303934FF0030ABFE73B
:1058C000BAF1700F6BD009D8BAF16E0F6AD0BAF185
:1058D0006F0F95D1A04B05930823EDE7BAF1750F33
:1058E00044D0BAF1780F45D0BAF1730F88D14FF098
:1058F000020AA5E76B68002B0BDD069A2B6812F8ED
:10590000011C1A78914217D004980DF52B7DBDE843
:10591000F08F2946404603F020FB0028EDD0049B81
:10592000002B00F07184AB8913F0400F049B18BF6B
:105930004FF0FF330493E7E76A680133013A6A6086
:105940002B600BF1010B0FE744F01004069B3DE7C1
:1059500059786C2904D10233069344F00204F5E728
:1059600044F00104F2E744F00404EFE77A4B0593B6
:105970000A23A1E744F40074774B059310239BE7B7
:10598000069912A802F04AF944F0400406904FF03C
:10599000010A55E744F040044FF0000A50E744F490
:1059A0000874E9E7E6063FF5DFAE14F0040F3A6845
:1059B00007F1040303D0A2F800B01F46D4E6E007C5
:1059C00002D5C2F800B0F8E7A107FAD55846C117CA
:1059D000C2E90001F1E72946404603F0BEFA00287B
:1059E0003FF432AF9BE76A680BF1010B013A002AE2
:1059F0006A6002DD01332B6028E72946404603F048
:105A0000ACFA00283FF422AF89E7002E08BF012638
:105A100014F0010304F010044DD00822002110A856
:105A2000FEF761FE74BBD7F800A004370023002EF8
:105A300039D0079301F05EFA079B83423FF46FAFC2
:105A40002A6852A812F8011B03F10109C1546B68BE
:105A50005146013B85E80C0010AB009302464B46D3
:105A6000404601F08BFC411C3FF459AF68B90CB9BA
:105A7000CAF80040CB44013E0CB90AF1040A4FF0C9
:105A8000000904E04FF0000AD0E70230F2D16B6861
:105A9000002B0EDC2946404603F05FFA48B1B9F10D
:105AA000000F7FF43CAF002C7FF45EAE049B01330B
:105AB00059E64B46BBE7CCB11C466B682A68B3423B
:105AC0000EDA1C44F61A13442B602946404603F0B4
:105AD00044FA0028F1D0002C3FF421AFA34443E660
